:100000000C94F4010C9413020C9413020C9413023C
:100010000C9413020C9413020C9413020C9413020C
:100020000C9413020C9413020C94520D0C94C20DF8
:100030000C9413020C9413020C9413020C941302EC
:100040000C9413020C9413020C9413020C941302DC
:100050000C9413020C9413020C9413020C941302CC
:100060000C9413020C9450080C947F080C94130207
:100070000C9413020C9413020C9413020C941302AC
:100080000C9413020C9413020C9413020C9413029C
:100090000C94D4090C941302020007026E600270E3
:1000A000BF000000140028003C00500063007700EF
:1000B0008B009F00B300C700DB00F10008012001A6
:1000C000390154016F018C01AB01CA01EB010E0231
:1000D000320257027D02A502CE02F9022503530324
:1000E0008203B303E50318044D048404BC04F6043E
:1000F00032056F05AD05ED052F067306B806FE0641
:1001000047079107DD072A087A08CA081D097209FE
:10011000C809200A790AD50A320B910BF20B550C4B
:10012000BA0C200D880DF20D5E0ECC0E3C0FAE0FFA
:10013000211097100E1188110312801200138113E1
:100140000414891410159A152516B2164117D317E1
:100150006618FB1893192C1AC81A661B061CA71CD4
:100160004C1DF21D9A1E441FF11FA0205021042295
:10017000B92270232A24E524A32564262627EB2709
:10018000B1287B29462A142BE32BB62C8A2D612E0D
:100190003A2F1530F230D231B43299338034693588
:1001A00055364237333825391A3A123B0B3C073D56
:1001B000063E073F0A4010411842234330443F4562
:1001C000514665477C489549B14ACF4BF04C134E98
:1001D000394F61508C51B952E9531B5550568757CE
:1001E000C158FE593D5B7E5CC25D095F52609E61F5
:1001F000ED623E649165E86640689C69FA6A5B6CF2
:10020000BE6D246F8D70F8716673D7744A76C077AF
:100210003979B47A327CB37D377FBD804682D18311
:100220005F85F08684881B8AB48B508DEF8E90900A
:100230003592DC9386953297E298949A499C019E78
:10024000BB9F79A139A3FCA4C2A68BA856AA25AC52
:10025000F6ADCAAFA1B17BB357B537B719B9FFBA7D
:10026000E7BCD2BEC0C0B1C2A5C49CC695C892CAE4
:1002700091CC94CE99D0A1D2ADD4BBD6CCD8E0DA73
:10028000F7DC11DF2EE14EE371E597E7C0E9ECEB17
:100290001BEE4DF082F2BAF4F5F633F974FBB8FDBB
:1002A000FFFF7543424140543F473E3D3C3B3A537C
:1002B0002952312E2D27262524232221201F1E35A9
:1002C0005028302F13120C181C1715081A142B4F16
:1002D0004C3234330F0E0D0B0A0907160439512A1C
:1002E0002C3738373610110519061B1D6456625914
:1002F0005C5F585A5D60635B5E615755080402019C
:1003000080402000000000000000005F5958575650
:100310005C555B54535251505A454C0D0C0B0A0915
:100320000807060504030201004F441B1A19181799
:1003300016151413121110424E462B2A292827266F
:10034000252423222120624D4140403A3938373656
:100350003534333231304A0F1D2D3D431E2E3E3C85
:100360001F2F3F5E5D66646063676561000000008B
:100370000000000009022200010100C0320904004F
:10038000000103010100092111010001223F0007C2
:1003900005830308000105010906A101050719E00D
:1003A00029E7150025017501950881029501750859
:1003B000810195057501050819012905910295012D
:1003C0007503910195067508150025650507190047
:1003D00029658100C01201000200000020EB03FB30
:1003E0002F0001000000010011241FBECFEFD0E25A
:1003F000DEBFCDBF11E0A0E0B1E0E0E9F3E200E054
:100400000BBF02C007900D92AA33B107D9F723E0C2
:10041000AAE3B1E001C01D92AB31B207E1F70E943F
:10042000EF0E0C94C6110C940000ECE7F0E0908104
:100430008770907E892B8083EAE7F0E0808180647A
:1004400080830895809178002091790090E0922B2C
:100450000895662311F0482B02C040954823842F4D
:10046000089590910502662311F0892B02C08095B2
:10047000892380930502089580916F02909105026F
:10048000882311F0906101C09F7E909305028091B6
:10049000F401823019F128F4882341F0813041F0D1
:1004A00041C08330F9F0843061F13CC080E017C076
:1004B00080917A0084FF38C00E94220220910502B8
:1004C0008335934010F0216001C02E7F20930502F8
:1004D0008091F4018F5F8093F40126C081E00E9437
:1004E0001502F6CF80917A0084FF1EC00E9422027E
:1004F000209105028130924010F02260E7CF2D7FDD
:10050000E5CF892F7A9902C0846001C08B7F8093E8
:1005100005027B9902C0886001C0877F8093050235
:1005200085E0D9CF1092F401809105020895CF9211
:10053000DF92EF92FF920F931F93CF93DF93FC0113
:10054000E62ED08001814281D01630F4041750F09D
:10055000D41650F082E009C0D41648F0041750F0C9
:1005600082E009C080E004C080E011E005C081E0C5
:1005700012E002C081E010E0DF01A10FB11DFC908C
:10058000DF01A80FB11D8C91CF2CC81ACF2DD0E060
:10059000C7FC08C02097D9F02FEFC29EC0011124DC
:1005A000BE010BC0209799F020E8C29EC001112423
:1005B000BE016F5F7F4F759567950E946D119B011E
:1005C0006F3F710531F02CF02FEF30E002C020E0DA
:1005D00030E0CC2089F16C2D70E0112391F08D2D4D
:1005E00090E01130D9F450E0481B590BABEAA49FBE
:1005F000C001A59F900D11240E9481116A5A7E4F5F
:100600001DC0A02FB0E0A41BB1094BEA4A9FC00156
:100610004B9F900D11240E94811110C0AC01401B12
:100620005109ABEAA49FC001A59F900D11240E941F
:10063000811165557D4F02C060E070E021153105E4
:1006400009F495C08B0184E0E89E000D111D112472
:100650001370C8016BEA70E00E94811145E5469F66
:10066000C001479F900D961B1124800F911FA6E09B
:10067000A89FA001A99F500D112455954795559508
:1006800047958FEF90E08C01021B130BC09FD001A8
:10069000C19FB00DD09FB00D1124EB2EEE0CEE08D3
:1006A000249F8001259F100D349F100D1124012FD0
:1006B000110F110B6C01C01AD10ACC9D8001CD9D88
:1006C000100DDC9D100D11246C01C41AD50A2C9D4F
:1006D000A0012D9D500D3C9D500D1124252F332739
:1006E00027FD3A95821B930BC89F9001C99F300D3F
:1006F000D89F300D1124C32FCC0FCC0B812F912FFD
:10070000990F990B97FF02C080E090E0432F5C2F78
:1007100057FF02C040E050E02B2F3E2D37FF02C0B4
:1007200020E030E062307105C1F054F461157105CC
:1007300089F061307105C1F4922F3F2DF82E19C058
:100740006330710569F06430710571F4322F9F2DAB
:10075000F42E0FC0342F922F0CC0942F3F2D02C0C7
:10076000382F9F2DF22E05C0322F982F02C09F2DBB
:100770003F2DF08231839283DF91CF911F910F91B2
:10078000FF90EF90DF90CF900895CF93DF9300D04C
:100790001F92CDB7DEB785E18A95F1F70000E091B1
:1007A000FC01F0E0E25FFD4F40814F3F81F489E4BE
:1007B000809306021092070220E030E042E066E0FB
:1007C00072E084E30E94780910922602BAC0818107
:1007D000942F990F940F990F9F5F9093060290E0CA
:1007E000FC01EE0FFF1FE80FF91F242F30E089E016
:1007F000489FE00DF11D1124E95DFD4F8081898343
:1008000041814A8352815B83F901EB50FE4F908115
:10081000913059F008F452C0F901EA59FD4FBE0178
:100820006C5F7F4F923061F020C0F901EA59FD4FB3
:1008300060816F5F6083CE0101960E9497023EC087
:1008400020812F5F208327FD2095FE013196808136
:10085000829FC00111248096880F892F881F990BD1
:100860008193E617F70799F729C0A081AF5FA083AE
:10087000A7FDA09590E0840F911D840F911D850F19
:10088000911D9595879595958795FE013196B0E0D8
:10089000408150E0481B590B4A9F90014B9F300DFF
:1008A0005A9F300D1124205C3F4F220F232F221F0F
:1008B000330B280F2193E617F70751F7898190E052
:1008C000FC01EE0FFF1FEE55FF4FE491E09307028E
:1008D000FC01EE0FFF1FED55FF4FE491E09308027E
:1008E0008A8190E0FC01EE0FFF1FEE55FF4FE4916F
:1008F000E0930902FC01EE0FFF1FED55FF4FE4915D
:10090000E0930A028B8190E0FC01EE0FFF1FEE5591
:10091000FF4FE491E0930B02FC01EE0FFF1FED553A
:10092000FF4FE491E0930C028091FC018E5F809375
:10093000FC0125EC33E047E066E072E084E30E94CE
:1009400078090F900F900F90DF91CF91089520E0DC
:1009500030E0682F70E0F9013196AB01022E02C041
:10096000559547950A94E2F740FF03C0A9019F01FE
:1009700012C09F01E730F10571F74FEF5FEF0BC039
:10098000FB01022E02C0F595E7950A94E2F7E0FD1F
:1009900007C02F5F3F4F2730310591F72FEF3FEF13
:1009A0004F3F9FEF5907C9F087FF0EC02F3F8FEFD2
:1009B000380709F49A0181E090E0022E01C0880F07
:1009C0000A94EAF7806808952F3F3F4F31F081E0A5
:1009D00001C0880F4A95EAF708958FEF0895AF9206
:1009E000BF92DF92EF92FF920F931F93CF93DF930B
:1009F00000D01F92CDB7DEB75C01FC015FEF4FEF77
:100A000019E0D12E662309F481C0DF018D918D019B
:100A1000782F7F719FEF960F807E803689F030F4BB
:100A20008032D9F0803409F44CC06CC0803A09F4AB
:100A300067C0803C89F1803809F064C05FE763C01B
:100A4000992309F460C09EEF960F8F010E5F1F4F30
:100A5000773008F058C0472F56C0992309F453C087
:100A60009EEF960F8F010E5F1F4F8181773008F048
:100A70004AC0E72EF12CF701E250FE4F80834983F4
:100A80005A839B830E94A704F701E25EFD4F808397
:100A900049815A819B8137C09923A9F19EEF960F16
:100AA0008F010E5F1F4F8181773068F5272F30E06F
:100AB000F901EB50FE4F8083F901EA59FD4F108296
:100AC00022C09430F8F09BEF960F2181A2816381C0
:100AD0008F010B5F1F4F84812330A8F4773098F487
:100AE00030E0F901EE0FFF1FE20FF31FD79EE00D7C
:100AF000F11D1124E95DFD4FA0836183828303C052
:100B00004FE701C090E0692FF8017CCF4F3FE9F13A
:100B10004F3749F48AEBF501808382E0818384E0DA
:100B2000828383E037C0842F992787FD9095FC014D
:100B3000E250FE4F2081F501219329E0289FB0016A
:100B4000299F700D1124675D7D4F9501265F3F4FF2
:100B5000AB0142505109DA014C914083AB01415045
:100B60005109DA014C914183DB014C914283339668
:100B70006D5F7F4FE217F30759F7FC01EB50FE4F13
:100B80008081F50182878BE005C081E05F3F09F439
:100B900080E081950F900F900F90DF91CF911F9182
:100BA0000F91FF90EF90DF90BF90AF9008950F935B
:100BB0001F93CF93DF93C82F1091FD01182711F4D5
:100BC0008C2F41C00E9436098111FACF80912602F4
:100BD0008111F6CFC7FD1FE10C2F0F71AEEFB1E011
:100BE00020E030E0EEE0F2E0902F9068422F8D910F
:100BF000582F512311F41F3189F440838923E901CF
:100C0000C25EDD4F4881481731F0482F4F7781E0B1
:100C100019F480E001C082E0818332962F5F3F4F5C
:100C20002730310519F781E0809326028FEF80830A
:100C300081831092FC0160E070E080E00E94C503B7
:100C40000093FD01802FDF91CF911F910F910895A7
:100C50006F927F928F929F92AF92BF92CF92DF92CC
:100C6000EF92FF920F931F93CF93DF936AEB80E095
:100C700091E00E94B81168E581E091E00E94B8110E
:100C80000EEF802E01E0902E85EFA82E81E0B82E89
:100C900099E2C92E92E0D92E2CE0E22EFF24F394A3
:100CA000F40161914F01E7012997C7010A970E945A
:100CB000A6118601F80132976081CE010E94A6112B
:100CC0003E01F80131976081CE0101960E94A61184
:100CD0002396F8016081C30102960E94A6110D5F60
:100CE0001F4FCE15DF0531F7F50161915F01CE0190
:100CF0000E94A6117E01FBE0EF0EF11C89E0C80EF8
:100D0000D11CE9E5EE16E1E0FE0651F66AEB80E063
:100D100091E00E94A61168E581E091E0DF91CF911A
:100D20001F910F91FF90EF90DF90CF90BF90AF9009
:100D30009F908F907F906F900C94A6114F925F922E
:100D40006F927F928F929F92AF92BF92CF92DF92DB
:100D5000EF92FF920F931F93CF93DF9380E091E088
:100D60000E949E11C82F81E091E00E949E1188355B
:100D700009F051C0CA3B09F04EC03EEF832E31E06E
:100D8000932E4EE1A42E42E0B42E55EFC52E51E035
:100D9000D52E69E2E62E62E0F62E7CE0472E552441
:100DA0005394E2012997C2010A970E949E11F4010F
:100DB00081934F010E94A704F50181935F01870190
:100DC000CE010E949E11F801329780833E01CE0130
:100DD00001960E949E11F801319780832396C301EA
:100DE00002960E949E11F80180830D5F1F4FC4156B
:100DF000D50531F7C2010E949E11F60181936F0162
:100E0000FBE04F0E511C89E0E80EF11CE9E54E169F
:100E1000E1E05E0631F6DF91CF911F910F91FF90D7
:100E2000EF90DF90CF90BF90AF909F908F907F908A
:100E30006F905F904F900895FB0180818093250211
:100E400008950F931F93CF93DF938AE08093FE0161
:100E500086E88093FF0186E08093000281E0809322
:100E60000102809302028093030280E180930402D6
:100E7000CEEFD1E00EE112E089910E94A704F801C3
:100E800081938F01F2E0C530DF07B1F7E5EFF1E0C4
:100E9000A6E6B2E011921D9281E0EC3FF807D1F78F
:100EA000109227021092280210922902109230020A
:100EB00010923102109232021092390210923A02CC
:100EC00010923B0210922A028FEF80932B022AEE9F
:100ED00020932C0280932D0290E990932E02109281
:100EE0002F028093330290933402109235021092B5
:100EF0003602209337028093380210923C022093EE
:100F00003D0280933E0280933F02909340021092F4
:100F10004102E7E4F2E080E030E22FEFDF011597D5
:100F20003C931196982F990F990F9F5F9C93119660
:100F3000982F990F9C5F9C9311962C931196982F44
:100F40009295990F907E9D5F9C93982F9295907F9C
:100F50009A5B90838F5F3996833001F781E08093AD
:100F60005D0282E380935E0286E280935F0281EA03
:100F7000809360021092610289EC80936202DF919B
:100F8000CF911F910F9108950F931F93CF93DF93EC
:100F9000109205021092F4011092FD018198899837
:100FA00082988A9883988B988098889887E880930D
:100FB0007A0080E480937C000E942309559A5D9A10
:100FC000C0E0D0E006E012E0FE01E856FF4F449199
:100FD000FE01E856FF4F4423B9F0A6E0B2E0842FAB
:100FE000800F31968A1719F094919D93FACF842F30
:100FF00090E00196C80FD91F20E030E066E072E073
:1010000084E30E947809E0CFCAE4DFEF1FE5C093D4
:101010000602D0930702D09308021093090220E041
:1010200030E044E066E072E084E30E947809CD5F3E
:10103000CF3569F70E9421078FE7DF91CF911F918C
:101040000F910C949E0610928401109283011092CD
:1010500082011092810110927F0108959091820186
:10106000809181019817C9F0E0918101EF5FEF71E4
:10107000E0938101F0E0EB57FE4F20812D3029F401
:1010800080917F01815080937F018091800190E069
:10109000982F8827820F911D089580E091E0089590
:1010A0001F920F920FB60F9211240BB60F922F932F
:1010B0008F939F93EF93FF938091C8009091CE0000
:1010C0008871E0913C01EF5FEF7120913B01E217E5
:1010D00039F0E0933C01F0E0E15CFE4F908301C009
:1010E00082E080933A01FF91EF919F918F912F9130
:1010F0000F900BBE0F900FBE0F901F9018951F9270
:101100000F920FB60F9211240BB60F928F939F93ED
:10111000EF93FF9390913E0180913D01981769F004
:10112000E0913D01EF5FEF71E0933D01F0E0E15AA6
:10113000FE4F80818093CE0005C08091C9008F7DD5
:101140008093C900FF91EF919F918F910F900BBEFB
:101150000F900FBE0F901F90189510923E011092A5
:101160003D0110923C0110923B0197FF04C022E028
:101170002093C8009F779093CD008093CC0088E99E
:101180008093C90086E08093CA00089590913C0145
:1011900080913B01981791F0E0913B01EF5FEF7177
:1011A000E0933B01F0E0E15CFE4F208180913A0149
:1011B00090E0982F8827820F911D089580E091E09C
:1011C000089590913E019F5F9F7120913D0192177C
:1011D000E1F3E92FF0E0E15AFE4F808390933E0166
:1011E0008091C90080628093C9000895CF93DF93F6
:1011F000EC018991882319F00E94E108FACFDF9170
:10120000CF910895CF93DF93FC018491EF01219654
:10121000882321F00E94E108FE01F7CFDF91CF91F2
:10122000089580913C0120913B0190E04F96821BF4
:1012300091096FE170E00E948111089580913B0156
:1012400080933C01089580E28093B8001092B90029
:101250001092E901789484E08093BC000895809115
:10126000E9018111FCCF86EC91E008958091E901BC
:10127000089585EA8093BC00089584E98093BC00BA
:10128000089585EC8093BC00089585E88093BC00A8
:1012900008958093BB000895A6EEB1E0EC9181E043
:1012A0008E0F8C938091BB00F0E0EB53FE4F808358
:1012B00008952091E60130E08091E50190E00197EA
:1012C0002817390714F485EC01C085E88093BC0029
:1012D00008958091C50186951092E901E091E7019A
:1012E000F091E801309719F066EC71E009940895E7
:1012F000EF92FF921F93CF93DF9300D01F92CDB751
:10130000DEB7182F79014B8369837A830E942F09F6
:1013100081E08093E901110F1093C5014B81840F87
:101320008093E5011092E601F092E801E092E70176
:1013300050E069817A8186EC91E00E94951185EAFE
:101340008093BC000F900F900F90DF91CF911F9171
:10135000FF90EF900895EF92FF921F93CF93DF934A
:101360001F92CDB7DEB7182F7A0169830E942F092B
:1013700081E08093E901812F880F81608093C5010E
:1013800069816F5F6093E5011092E601F092E801D8
:10139000E092E70185EA8093BC000F90DF91CF9146
:1013A0001F91FF90EF9008951F920F920FB60F922A
:1013B00011240BB60F922F933F934F935F936F932C
:1013C0007F938F939F93AF93BF93EF93FF938091FE
:1013D000B900887F883279F038F4803161F0883143
:1013E00051F0883019F507C08035C9F08835E1F033
:1013F0008034E1F416C0E091E6018091E501E81740
:10140000A8F481E08E0F8093E601F0E0EB53FE4FED
:1014100080818093BB0085E88093BC000CC00E9453
:101420004C090E94590907C00E944C0984E9809325
:10143000BC000E946909FF91EF91BF91AF919F910C
:101440008F917F916F915F914F913F912F910F906D
:101450000BBE0F900FBE0F901F901895E82FF0E075
:10146000623040F4E55FFC4FE491EE0F81E08627A7
:10147000E82B08C09F01220F331FE82FEE1FEE2735
:10148000EE1FE22B5A9A529A5B9A539A98E08E2F4B
:101490008095881F8827881F880F880F880F2BB199
:1014A000277F822B8BB98AE68A95F1F700C05A987C
:1014B0008AE68A95F1F700C05A9A80EA8A95F1F790
:1014C000EE0F915021F75B9A8AE68A95F1F700C0FA
:1014D0005398529881E00895CF93DF935A9A529A85
:1014E0005B9A539A5A9A5B988AE68A95F1F700C0FC
:1014F0005A988AE68A95F1F700C05A9A8AE68A9540
:10150000F1F700C05B9A53985298C1E0D0E0CE0149
:101510009370892B29F40E943C020E94D70504C0D5
:1015200085E38A95F1F700004B9B0CC00E944F0D9C
:10153000882311F080E01EC02196CC3D87E3D807B8
:1015400031F7F8CFC1E0D0E0CE019370892B29F4B8
:101550000E943C020E94D70504C085E38A95F1F7FA
:1015600000004B9906C02196CC3D87E3D80761F770
:10157000E1CF81E0DF91CF91089510926E028FE16B
:1015800080936D020895E0916E0291E09E0F9F712D
:1015900020916D02921741F0F0E0E750FD4F8083FB
:1015A00090936E0281E0089580E0089520916D028D
:1015B0002F5F2F7130916E02231761F0009761F059
:1015C000E22FF0E0E750FD4F3081FC0130832093A3
:1015D0006D0202C080E0089581E0089599B1982BD2
:1015E00096FF09C080FF02C090E801C090E085B17D
:1015F0008F77892B85B90895DF92EF92FF920F9331
:101600001F93CF93DF931F92CDB7DEB783E4809310
:1016100070021092710210E2109372021092730223
:101620001092740284E480937502109276021092F4
:101630007702109378021092790275E4E72EE09217
:101640007A0210927B0210927C0210927D0210931B
:101650007E0200E400937F021092800210928102C9
:101660001092820210928302E1E4DE2ED092840274
:1016700010928502109286021092870210928802C0
:10168000F2E4FF2EF092890210928A0210928B02ED
:1016900010928C0210928D026EE180E792E00E941F
:1016A000EF040093700281E0809371021092720245
:1016B00090E59093730210937402D0927502809318
:1016C000760210927702E092780295E29093790286
:1016D000F0927A0280937B0210927C0200937D024A
:1016E00020E320937E0223E220937F0280938002F6
:1016F00024E220938102809382029093830280935C
:1017000084021093850282E08093860281E28093B6
:10171000870284E08093880282E28093890288E0D5
:1017200080938A026BE180E792E00E94EF0483ECF1
:10173000809370021092710284EC80937202109276
:10174000730285EC809374021092750266E080E764
:1017500092E00E94EF0460E081E00E94310260E0CC
:1017600082E00E94310260E084E00E94310260E089
:1017700080E10E94310260E088E00E9431028068CE
:101780000E94D7051FE7E12CF12C0E944F0D882302
:1017900009F49CC086E090E030E000E050E044E0D6
:1017A000242F2C7FA1F122B12C6F242722B92AE10A
:1017B0002A95F1F700C0252FE22FE51BF0E0DF01AD
:1017C000A85DBE4F7C91772319F1EE0FFF1FE85FF4
:1017D000FE4F0190F081E02D61A567236983798137
:1017E00061E0711160E069836981613071F40630F4
:1017F00060F4A02FB0E0E22FF0E0EE55FD4FE49151
:10180000A451BE4FEC930F5F31E02F5FD5CF252F52
:10181000440F0197009711F0522FC2CF93B19F77D9
:10182000D12C80E0EAE5E80FA82FB0E0A050BF4F30
:101830002C91222351F0292331F4F0E0EE55FD4F95
:10184000E491DE2A31E08F5FEDCFD092EB01E01220
:1018500031E0DF1031E0802F863038F4E82FF0E0FF
:10186000E451FE4F10828F5FF7CF332341F00E9487
:10187000250D8FE39CE90197F1F700C000008091EE
:101880001903181701F11091190311FB882780F92A
:1018900080936F020E94EE0A60916F0282E00E94C4
:1018A000310260916F0280E10E943102612F61700C
:1018B00084E00E94310212FB662760F988E00E94F2
:1018C00031020E94D705E02EFD2C5FCF0F90DF91F3
:1018D000CF911F910F91FF90EF90DF900895CF93DC
:1018E000DF93EC01009709F47FC0188214BC84E0F8
:1018F00085BD16BC81E085BB91E080E020E0A89921
:1019000018C035E33A95F1F700004A9B08C09111E1
:1019100008C02F5F880F4B9B04C0816002C090E01D
:1019200001C091E0833039F0283048F3843038F337
:1019300007C0833029F4253010F0A89B10C083E045
:10194000A89B03C0806888834FC016BC91E095BBFC
:1019500090E8A899F7CF4A99FCCF96BDFACF16BC6C
:1019600081E085BB30E0E0E7F2E080E020E090E05D
:1019700041E0A89B02C03F5F45BB55E35A95F1F794
:1019800000004A991DC08130A1F4983061F4DF0154
:1019900011962083CD01805792408097DCF416BCCD
:1019A000FD0120E090E09F5F220F4B9B0BC0216068
:1019B00009C0833048F48F5F4B9B07C0216005C08E
:1019C00081E003C082E001C083E03A3090F29830B9
:1019D00029F4DF01FD0131962C9316BCE057F2404B
:1019E000E88380E792E002C080E090E0DF91CF9151
:1019F0000895089508958091D70081608093D7005D
:101A000084E189BD86E189BD09B400FEFDCF8091E6
:101A1000D80080698093D8008091D8008F7D809312
:101A2000D8008091E0008B7F8093E0008091E000FF
:101A30008E7F8093E0008091E2008C608093E200D2
:101A40001092EA0180E090E008958091EA018823F5
:101A500019F1F89483E08093E9008091E80085FF14
:101A6000FCCF8091EB018093F1001092F10080E0B7
:101A700090E0FC01E451FE4F20812093F10001969B
:101A800086309105B1F78AE38093E8001092F30164
:101A9000789480E090E008958FEF9FEF0895809113
:101AA000EA0108951F920F920FB60F9211242F93FF
:101AB0003F938F939F938091E1001092E10083FF09
:101AC0001AC01092E90091E09093EB001092EC00A4
:101AD0008091ED0082628093ED001092EA01809186
:101AE000EE0087FF46C09093EA001092EA0088E07B
:101AF0008093F0003EC082FF3CC08091EA018823C1
:101B0000C1F12091F2012F5F2093F2018091380101
:101B100090913901892B69F1237059F583E0809305
:101B2000E9008091E80085FF24C02091F3012F5F38
:101B30002093F30130E0809138019091390128170A
:101B40003907B9F41092F3018091EB018093F10011
:101B50001092F1001092F1001092F1001092F10039
:101B60001092F1001092F1001092F1008AE380933C
:101B7000E8009F918F913F912F910F900FBE0F9092
:101B80001F9018951F920F920FB60F9211240BB64B
:101B90000F922F933F934F935F936F937F938F9306
:101BA0009F93EF93FF931092E9008091E80083FFE9
:101BB00000C15091F1004091F1008091F10020911D
:101BC000F10090E0922BE091F1007091F1002091F2
:101BD000F1006091F1003091E800327F3093E8002D
:101BE000463009F04CC0811531E0930719F4E5ED5A
:101BF000F3E00AC0811532E0930789F0811531E2E4
:101C0000930729F4E6E8F3E04491CF010BC0811576
:101C1000924209F0CEC04FE386E993E003C042E26E
:101C200084E793E030E0362B2F3F310519F010F0B8
:101C30002FEF30E0241700F5422F1EC02091E8005E
:101C400020FFFCCF2091E80022FDB8C0242F4132B4
:101C500008F020E2382FFC0154915093F1003196A6
:101C60005E2F531B5217C0F3421B820F911D209110
:101C7000E8002E7F2093E8004111E0CF9FC049305B
:101C8000D9F451113EC08093EA018091E8008E7F23
:101C90008093E80083E08093E90081E08093EB008B
:101CA00081EC8093EC0086E08093ED008EE18093E0
:101CB000EA001092EA0082C0453069F42091E80001
:101CC0002E7F2093E8002091E80020FFFCCF806861
:101CD0008093E30073C0483049F4503891F4809108
:101CE000E80080FFFCCF8091EA013BC0411109C0B0
:101CF0008091E80080FFFCCF1092F1001092F1007B
:101D000052C02E2F30E0372B232B09F052C0513A0E
:101D100059F54130A9F48091E80080FFFCCF809113
:101D2000EB018093F10080E090E0FC01E451FE4F74
:101D300020812093F100019686309105B1F733C0E0
:101D4000423039F48091E80080FFFCCF8091380167
:101D500008C0433071F58091E80080FFFCCF80918E
:101D60001A038093F1001FC0513219F5493071F404
:101D70008091E80082FFFCCF8091F10080931903ED
:101D80008091E8008B7F8093E8000DC04A3039F4E1
:101D900090933901809338011092F30104C04B30C5
:101DA00041F490931A038091E8008E7F8093E800BD
:101DB00005C08091EB0081628093EB00FF91EF9171
:101DC0009F918F917F916F915F914F913F912F9153
:101DD0000F900BBE0F900FBE0F901F901895CF93D2
:101DE000DF93CDB7DEB728970FB6F894DEBF0FBEEE
:101DF000CDBF1A8280E880936100109261005398F1
:101E00005B9A52985A9A279A2F9881E080936F0292
:101E10000E94EE0A81B18C6F81B982B18C6F82B958
:101E200020E0E22FF0E0BF01685D7E4FDB014C91C6
:101E30004423C1F0EE0FFF1FE85FFE4F80819181C8
:101E4000DC019A963C919A97409534239A963C935C
:101E50000190F081E02D83A5DB019C91892B83A764
:101E60002F5FDFCF84B1807884B985B18F6785B962
:101E700054985C9A8198899A82988A9A83988B9AC6
:101E80008098889887E880937A0080E480937C002B
:101E900056985E9A57985F9AE0E9F2E01192B2E0A4
:101EA000EA3EFB07D9F70E94FB0C0E94C4070E9480
:101EB0002F098FEF0E94D7050E943C02182F0E9425
:101EC0002F09812F0E94D7050E94BD0A312C00E006
:101ED00010E0A12CB12CE12CF12C412C1C8242E011
:101EE000542E0E943C028D830F5F1F4F0E944F0DA6
:101EF000811104C0E52DE370DE2E0FC00E94FC0AA4
:101F0000F0CF0E946C0A1816C4F00E944F0D88236F
:101F100039F00E94FC0AE12CF12CD110F2CF1EC046
:101F200083B18C7429F4549A5C98529A5A98F3CFDE
:101F300052985A9A54985C9AEECFB52DB77AFB2EE8
:101F400051FEC1C10E94BD0A62E08DEF0E942E0ABF
:101F50008F2D88628C7F582EE12CF12C36E0832E59
:101F6000912C212C34E050FCB4C0832F8C7F09F4D9
:101F7000A6C082B18C6F832782B9FAE1FA95F1F796
:101F800000C053FE1EC054FE06C04B9B20C0252D32
:101F9000277E522E1CC04B9908C0452D4061542EFF
:101FA00000E010E0E12CF12C14C05FEFE51AF50A17
:101FB00089EBE8168FE6F80650F0A52DA1605A2EA1
:101FC00006C00630110528F04B9903C082C000E01E
:101FD00010E0922DE92FE219F0E0DF01A85DBE4F7D
:101FE0004C91442309F46CC050FC6AC0EE0FFF1FF3
:101FF000E85FFE4F0190F081E02D81A584238B8363
:102000004B8181E0411180E08B83692E712CF301BB
:10201000E057FD4F6F0180815B81482F417045176C
:1020200009F446C086958F5F803208F43DC09B332B
:1020300001F54B814130B1F5432540936F02842F68
:1020400038874E839F830E94EE0AF301E55FFC4FC1
:102050008491F0E83F9EB0011124862B0E94C30AB0
:1020600038854E819F8181111CC0252D2064522E00
:1020700018C0F301E55FFC4F84914B8151E0452787
:10208000A0E84A9FA0011124842B38879F830E94D7
:10209000C30A38859F81811105C0B52DB0645B2EC0
:1020A00001C0342E8B8107C0880F842B808305C02C
:1020B000823018F08250F60180839F5F8BCF922D83
:1020C000330FF1E08F1A91088114910411F0292E39
:1020D0004ACF23B12F77912CEAE5E90DA92DB0E085
:1020E000A050BF4F8C91882351F1822311F01B82A5
:1020F00002C031E03B83F0E09B81AF0140575D4F70
:102100006A01DA018C9181708917B9F0E55FFC4FA3
:10211000E4919B81B1E09B27F0E89F9FC0011124CF
:102120008E2B2E830E94C30A2E81811103C0352D70
:102130003064532E8B81D6018C939394CDCF55FE72
:102140000BC08EEF0E94C30AB52DBF7D5B2E10928F
:102150006F0280E00E94EE0A852D8C71B9F4411067
:1021600014C0CE0101960E94D60A882379F062E05D
:1021700089810E942E0AE52DE8605E2E00E010E0C5
:10218000E12CF12C82E0482E01C04A94852D887103
:1021900009F06AC02C81213089F40230110508F45D
:1021A00063C08FE70E94280683EF0E94C30A83EF73
:1021B0000E94C30A80E40E94EE0A1C8206301105C8
:1021C00008F452C04B9947C04A9945C0CE010296C7
:1021D0000E946F0C982ED92E6A8167FD7BC0662302
:1021E000D1F10E94EF04C82E3FEF831313C081E4A6
:1021F0000E94EE0A8BEF0E94C30A8BEF0E94C30A73
:1022000080E00E94C30A00E010E0B4E04B2E41E001
:102210004C832AC01816A4F48BEF0E94C30A8BEFDC
:102220000E94C30A8C2D0E94C30A092D1D2DC90CC2
:10223000D8018D918D010E94C30AC012F9CF03C04D
:1022400083EF0E94C30A83EF0E94C30A00E010E0FC
:10225000A4E04A2E09C00130B4E01B0728F02D810C
:1022600020682D8305E010E08D810E94D7058091C4
:10227000EA029091EE02892381709091ED02892308
:1022800041F052FC0BC0352D3460532EA12CB12CE3
:1022900005C052985A9A452D4B7F542E52FE10C0BD
:1022A00053E0A50EB11C84E1A816B10408F419CEC0
:1022B000549A5C98529A5A98A52DA77E5A2E11CE00
:1022C00054985C9A0ECE62E089EF0E942E0A8F2D00
:1022D000886040CE00E010E0C7CFAA1BBB1B51E1D5
:1022E00007C0AA1FBB1FA617B70710F0A61BB70B86
:1022F000881F991F5A95A9F780959095BC01CD012B
:10230000089597FB072E16F4009407D077FD09D0A7
:102310000E946D1107FC05D03EF4909581959F4F6A
:102320000895709561957F4F0895FB01DC0102C00F
:1023300001900D9241505040D8F70895F999FECF81
:1023400092BD81BDF89A992780B50895262FF999F5
:10235000FECF92BD81BDF89A019700B4021639F004
:102360001FBA20BD0FB6F894FA9AF99A0FBE0895D5
:10237000262FF999FECF1FBA92BD81BD20BD0FB6A1
:10238000F894FA9AF99A0FBE01960895F894FFCF3F
:102390004020100804020100FDFFFDFFFDFFFDFFCE
:1023A000FDFFFDFFFDFFFDFF030003000300030031
:1023B0000300030003000000010204081020408015
:0A23C00001020408102040007D0017
:00000001FF
