:100000000C9486010C94A5010C94A5010C94A501F7
:100010000C94A5010C94A5010C94A5010C94A501C8
:100020000C94A5010C94A5010C94A5010C94A501B8
:100030000C94A5010C94A5010C94A5010C94A501A8
:100040000C94A5010C94A5010C94A5010C94A50198
:100050000C94A5010C94A5010C94A5010C94A50188
:100060000C94A5010C94D6070C9405080C94A501DA
:100070000C94A5010C94A5010C94A5010C94A50168
:100080000C94A5010C94A5010C94A5010C94A50158
:100090000C945A090C94A501020007026E600270CC
:1000A000BF000000140028003C00500063007700EF
:1000B0008B009F00B300C700DB00F10008012001A6
:1000C000390154016F018C01AB01CA01EB010E0231
:1000D000320257027D02A502CE02F9022503530324
:1000E0008203B303E50318044D048404BC04F6043E
:1000F00032056F05AD05ED052F067306B806FE0641
:1001000047079107DD072A087A08CA081D097209FE
:10011000C809200A790AD50A320B910BF20B550C4B
:10012000BA0C200D880DF20D5E0ECC0E3C0FAE0FFA
:10013000211097100E1188110312801200138113E1
:100140000414891410159A152516B2164117D317E1
:100150006618FB1893192C1AC81A661B061CA71CD4
:100160004C1DF21D9A1E441FF11FA0205021042295
:10017000B92270232A24E524A32564262627EB2709
:10018000B1287B29462A142BE32BB62C8A2D612E0D
:100190003A2F1530F230D231B43299338034693588
:1001A00055364237333825391A3A123B0B3C073D56
:1001B000063E073F0A4010411842234330443F4562
:1001C000514665477C489549B14ACF4BF04C134E98
:1001D000394F61508C51B952E9531B5550568757CE
:1001E000C158FE593D5B7E5CC25D095F52609E61F5
:1001F000ED623E649165E86640689C69FA6A5B6CF2
:10020000BE6D246F8D70F8716673D7744A76C077AF
:100210003979B47A327CB37D377FBD804682D18311
:100220005F85F08684881B8AB48B508DEF8E90900A
:100230003592DC9386953297E298949A499C019E78
:10024000BB9F79A139A3FCA4C2A68BA856AA25AC52
:10025000F6ADCAAFA1B17BB357B537B719B9FFBA7D
:10026000E7BCD2BEC0C0B1C2A5C49CC695C892CAE4
:1002700091CC94CE99D0A1D2ADD4BBD6CCD8E0DA73
:10028000F7DC11DF2EE14EE371E597E7C0E9ECEB17
:100290001BEE4DF082F2BAF4F5F633F974FBB8FDBB
:1002A000FFFF5F595857565C555B54535251505A93
:1002B000454C0D0C0B0A0908070605040302010052
:1002C0004F441B1A19181716151413121110424E09
:1002D000462B2A29282726252423222120624D4126
:1002E00040403A393837363534333231304A0F1DD1
:1002F0002D3D431E2E3E3C1F2F3F5E5D66646063B6
:1003000067656100000000000000000011241FBEAE
:10031000CFEFD0E2DEBFCDBF11E0A0E0B1E0EEEA6A
:10032000FBE100E00BBF02C007900D92A833B107BC
:10033000D9F723E0A8E3B1E001C01D92AD30B207C8
:10034000E1F70E94090B0C94D50D0C940000ECE72A
:10035000F0E090818770907E892B8083EAE7F0E05F
:100360008081806480830895809178002091790055
:1003700090E0922B0895662311F0482B02C040951F
:100380004823842F0895809163029091F901882376
:1003900011F0906101C09F7E9093F9018091E80176
:1003A000823019F128F4882341F0813041F041C0B6
:1003B0008330F9F0843061F13CC080E017C0809157
:1003C0007A0084FF38C00E94B4012091F90183357E
:1003D000934010F0216001C02E7F2093F90180919D
:1003E000E8018F5F8093E80126C081E00E94A701A9
:1003F000F6CF80917A0084FF1EC00E94B401209144
:10040000F9018130924010F02260E7CF2D7FE5CFD7
:10041000892F7A9902C0846001C08B7F8093F90193
:100420007B9902C0886001C0877F8093F90185E0D5
:10043000D9CF1092E8018091F9010895CF92DF920F
:10044000EF92FF920F931F93CF93DF93FC01E62E61
:10045000D08001814281D01630F4041750F0D416B8
:1004600050F082E009C0D41648F0041750F082E042
:1004700009C080E004C080E011E005C081E012E026
:1004800002C081E010E0DF01A10FB11DFC90DF018F
:10049000A80FB11D8C91CF2CC81ACF2DD0E0C7FC6E
:1004A00008C02097D9F02FEFC29EC0011124BE01D1
:1004B0000BC0209799F020E8C29EC0011124BE0114
:1004C0006F5F7F4F759567950E947C0D9B016F3F15
:1004D000710531F02CF02FEF30E002C020E030E069
:1004E000CC2089F16C2D70E0112391F08D2D90E0DE
:1004F0001130D9F450E0481B590BABEAA49FC0015E
:10050000A59F900D11240E94900D6A5A7E4F1DC028
:10051000A02FB0E0A41BB1094BEA4A9FC0014B9F3A
:10052000900D11240E94900D10C0AC01401B510988
:10053000ABEAA49FC001A59F900D11240E94900DCD
:1005400065557D4F02C060E070E02115310509F46A
:1005500095C08B0184E0E89E000D111D11241370DD
:10056000C8016BEA70E00E94900D45E5469FC0010E
:10057000479F900D961B1124800F911FA6E0A89F06
:10058000A001A99F500D1124559547955595479564
:100590008FEF90E08C01021B130BC09FD001C19F15
:1005A000B00DD09FB00D1124EB2EEE0CEE08249F61
:1005B0008001259F100D349F100D1124012F110F64
:1005C000110B6C01C01AD10ACC9D8001CD9D100D7C
:1005D000DC9D100D11246C01C41AD50A2C9DA001BC
:1005E0002D9D500D3C9D500D1124252F332727FDA7
:1005F0003A95821B930BC89F9001C99F300DD89FDD
:10060000300D1124C32FCC0FCC0B812F912F990FBC
:10061000990B97FF02C080E090E0432F5C2F57FFBB
:1006200002C040E050E02B2F3E2D37FF02C020E0FB
:1006300030E062307105C1F054F46115710589F044
:1006400061307105C1F4922F3F2DF82E19C063302F
:10065000710569F06430710571F4322F9F2DF42E0D
:100660000FC0342F922F0CC0942F3F2D02C0382F73
:100670009F2DF22E05C0322F982F02C09F2D3F2DA7
:10068000F08231839283DF91CF911F910F91FF9080
:10069000EF90DF90CF900895CF93DF9300D01F921B
:1006A000CDB7DEB785E18A95F1F70000E091F00162
:1006B000F0E0EE5FFD4F40814F3F81F489E480938D
:1006C000FA011092FB0120E030E042E06AEF71E0B5
:1006D00084E30E94FE0810921A02BAC08181942F0E
:1006E000990F940F990F9F5F9093FA0190E0FC018E
:1006F000EE0FFF1FE80FF91F242F30E089E0489F1D
:10070000E00DF11D1124E55EFD4F8081898341815B
:100710004A8352815B83F901E751FE4F908191300A
:1007200059F008F452C0F901E65AFD4FBE016C5F62
:100730007F4F923061F020C0F901E65AFD4F608191
:100740006F5F6083CE0101960E941E023EC0208131
:100750002F5F208327FD2095FE0131968081829FA7
:10076000C00111248096880F892F881F990B8193CF
:10077000E617F70799F729C0A081AF5FA083A7FD0F
:10078000A09590E0840F911D840F911D850F911D00
:100790009595879595958795FE013196B0E04081B6
:1007A00050E0481B590B4A9F90014B9F300D5A9FB8
:1007B000300D1124205C3F4F220F232F221F330BBB
:1007C000280F2193E617F70751F7898190E0FC0184
:1007D000EE0FFF1FEE55FF4FE491E093FB01FC018C
:1007E000EE0FFF1FED55FF4FE491E093FC018A816E
:1007F00090E0FC01EE0FFF1FEE55FF4FE491E093F8
:10080000FD01FC01EE0FFF1FED55FF4FE491E0935A
:10081000FE018B8190E0FC01EE0FFF1FEE55FF4FB4
:10082000E491E093FF01FC01EE0FFF1FED55FF4F38
:10083000E491E09300028091F0018E5F8093F001DB
:100840002CE433E047E06AEF71E084E30E94FE08A5
:100850000F900F900F90DF91CF91089520E030E03E
:10086000682F70E0F9013196AB01022E02C0559558
:1008700047950A94E2F740FF03C0A9019F0112C007
:100880009F01E730F10571F74FEF5FEF0BC0FB0100
:10089000022E02C0F595E7950A94E2F7E0FD07C045
:1008A0002F5F3F4F2730310591F72FEF3FEF4F3F3D
:1008B0009FEF5907C9F087FF0EC02F3F8FEF380712
:1008C00009F49A0181E090E0022E01C0880F0A9499
:1008D000EAF7806808952F3F3F4F31F081E001C073
:1008E000880F4A95EAF708958FEF0895AF92BF9267
:1008F000DF92EF92FF920F931F93CF93DF9300D07D
:100900001F92CDB7DEB75C01FC015FEF4FEF19E03E
:10091000D12E662309F481C0DF018D918D01782FDE
:100920007F719FEF960F807E803689F030F48032A1
:10093000D9F0803409F44CC06CC0803A09F467C027
:10094000803C89F1803809F064C05FE763C0992377
:1009500009F460C09EEF960F8F010E5F1F4F773036
:1009600008F058C0472F56C0992309F453C09EEF92
:10097000960F8F010E5F1F4F8181773008F04AC0BC
:10098000E72EF12CF701EE50FE4F808349835A8306
:100990009B830E942E04F701EE5EFD4F8083498108
:1009A0005A819B8137C09923A9F19EEF960F8F0141
:1009B0000E5F1F4F8181773068F5272F30E0F901F6
:1009C000E751FE4F8083F901E65AFD4F108222C0A5
:1009D0009430F8F09BEF960F2181A28163818F0103
:1009E0000B5F1F4F84812330A8F4773098F430E0F8
:1009F000F901EE0FFF1FE20FF31FD79EE00DF11D6F
:100A00001124E55EFD4FA0836183828303C04FE71D
:100A100001C090E0692FF8017CCF4F3FE1F14F37E3
:100A200041F48AEBF501808382E0818383E0828355
:100A300037C0842F992787FD9095FC01EE50FE4F1B
:100A40002081F501219329E0289FB001299F700D95
:100A50001124635E7D4F9501265F3F4FAB014250ED
:100A60005109DA014C914083AB0141505109DA013F
:100A70004C914183DB014C91428333966D5F7F4FF4
:100A8000E217F30759F7FC01E751FE4F8081F501AA
:100A900082878BE005C081E05F3F09F480E08195AB
:100AA0000F900F900F90DF91CF911F910F91FF90BA
:100AB000EF90DF90BF90AF9008950F931F93CF9367
:100AC000DF93C82F1091F101182711F48C2F41C02A
:100AD0000E94BC088111FACF80911A028111F6CFD1
:100AE000C7FD1FE10C2F0F71A2EFB1E020E030E055
:100AF000E2E0F2E0902F9068422F8D91582F512321
:100B000011F41F3189F440838923E901CE5EDD4F62
:100B10004881481731F0482F4F7781E019F480E081
:100B200001C082E0818332962F5F3F4F273031052D
:100B300019F781E080931A028FEF808381831092EE
:100B4000F00160E070E080E00E944C030093F1014E
:100B5000802FDF91CF911F910F9108956F927F9217
:100B60008F929F92AF92BF92CF92DF92EF92FF92BD
:100B70000F931F93CF93DF936AEB80E091E00E9485
:100B8000C70D68E581E091E00E94C70D02EF802E5D
:100B900001E0902E89EEA82E81E0B82E9DE1C92EAD
:100BA00092E0D92E2CE0E22EFF24F394F40161911F
:100BB0004F01E7012997C7010A970E94B50D8601E9
:100BC000F80132976081CE010E94B50D3E01F80117
:100BD00031976081CE0101960E94B50D2396F801F0
:100BE0006081C30102960E94B50D0D5F1F4FCE15A7
:100BF000DF0531F7F50161915F01CE010E94B50D6E
:100C00007E01FBE0EF0EF11C89E0C80ED11CE9E586
:100C1000EE16E1E0FE0651F66AEB80E091E00E94FC
:100C2000B50D68E581E091E0DF91CF911F910F91C3
:100C3000FF90EF90DF90CF90BF90AF909F908F90FC
:100C40007F906F900C94B50D4F925F926F927F9250
:100C50008F929F92AF92BF92CF92DF92EF92FF92CC
:100C60000F931F93CF93DF9380E091E00E94AD0D2F
:100C7000C82F81E091E00E94AD0D883509F051C088
:100C8000CA3B09F04EC032EF832E31E0932E42E191
:100C9000A42E42E0B42E59EEC52E51E0D52E6DE1C2
:100CA000E62E62E0F62E7CE0472E55245394E201B6
:100CB0002997C2010A970E94AD0DF40181934F015B
:100CC0000E942E04F50181935F018701CE010E94ED
:100CD000AD0DF801329780833E01CE0101960E944E
:100CE000AD0DF801319780832396C30102960E94CF
:100CF000AD0DF80180830D5F1F4FC415D50531F789
:100D0000C2010E94AD0DF60181936F01FBE04F0E11
:100D1000511C89E0E80EF11CE9E54E16E1E05E06A3
:100D200031F6DF91CF911F910F91FF90EF90DF90FF
:100D3000CF90BF90AF909F908F907F906F905F907B
:100D40004F900895FB0180818093190208950F93BD
:100D50001F93CF93DF938AE08093F20186E880931C
:100D6000F30186E08093F40181E08093F5018093A4
:100D7000F6018093F70180E18093F801C2EFD1E0A2
:100D800002E112E089910E942E04F80181938F0103
:100D9000F1E0C93FDF07B1F7E9EEF1E0AAE5B2E023
:100DA00011921D9281E0E03FF807D1F710921B02EB
:100DB00010921C0210921D02109224021092250221
:100DC0001092260210922D0210922E0210922F02E3
:100DD00010921E028FEF80931F022AEE20932002B2
:100DE0008093210290E99093220210922302809333
:100DF0002702909328021092290210922A0220932F
:100E00002B0280932C0210923002209331028093A7
:100E10003202809333029093340210923502EBE356
:100E2000F2E080E030E22FEFDF0115973C9311965E
:100E3000982F990F990F9F5F9C931196982F990F58
:100E40009C5F9C9311962C931196982F9295990FD5
:100E5000907E9D5F9C93982F9295907F9A5B908354
:100E60008F5F3996833001F781E08093510282E3EE
:100E70008093520286E28093530281EA8093540267
:100E80001092550289EC80935602DF91CF911F9109
:100E90000F9108950F931F93CF93DF931092F90151
:100EA0001092E8011092F1018198899882988A98AD
:100EB00083988B988098889887E880937A0080E45C
:100EC00080937C000E94A908559A5D9AC0E0D0E00A
:100ED0000AEF11E0FE01E856FF4F4491FE01E8568B
:100EE000FF4F4423B9F0AAEFB1E0842F800F319671
:100EF0008A1719F094919D93FACF842F90E0019670
:100F0000C80FD91F20E030E06AEF71E084E30E944F
:100F1000FE08E0CFCAE4DFEF1FE5C093FA01D093EB
:100F2000FB01D093FC011093FD0120E030E044E090
:100F30006AEF71E084E30E94FE08CD5FCF3569F768
:100F40000E94A7068FE7DF91CF911F910F910C941C
:100F50002406109282011092810110928001109259
:100F60007F0110927D0108959091800180917F0111
:100F70009817C9F0E0917F01EF5FEF71E0937F0177
:100F8000F0E0ED57FE4F20812D3029F480917D0156
:100F9000815080937D0180917E0190E0982F882779
:100FA000820F911D089580E091E008951F920F92A5
:100FB0000FB60F9211240BB60F922F938F939F931E
:100FC000EF93FF938091C8009091CE008871E091DB
:100FD0003A01EF5FEF7120913901E21739F0E093A8
:100FE0003A01F0E0E35CFE4F908301C082E0809321
:100FF0003801FF91EF919F918F912F910F900BBE30
:101000000F900FBE0F901F9018951F920F920FB662
:101010000F9211240BB60F928F939F93EF93FF9330
:1010200090913C0180913B01981769F0E0913B0160
:10103000EF5FEF71E0933B01F0E0E35AFE4F8081F8
:101040008093CE0005C08091C9008F7D8093C90038
:10105000FF91EF919F918F910F900BBE0F900FBE5C
:101060000F901F90189510923C0110923B01109226
:101070003A011092390197FF04C022E02093C80082
:101080009F779093CD008093CC0088E98093C9002E
:1010900086E08093CA00089590913A0180913901C9
:1010A000981791F0E0913901EF5FEF71E09339010A
:1010B000F0E0E35CFE4F20818091380190E0982FB2
:1010C0008827820F911D089580E091E00895909106
:1010D0003C019F5F9F7120913B019217E1F3E92F43
:1010E000F0E0E35AFE4F808390933C018091C90069
:1010F00080628093C9000895CF93DF93EC018991BA
:10110000882319F00E946708FACFDF91CF910895E4
:10111000CF93DF93FC018491EF012196882321F086
:101120000E946708FE01F7CFDF91CF91089580916B
:101130003A012091390190E04F96821B91096FE1AD
:1011400070E00E94900D08958091390180933A01DA
:10115000089580E28093B8001092B9001092E701E0
:10116000789484E08093BC0008958091E701811118
:10117000FCCF84EC91E008958091E701089585EA21
:101180008093BC00089584E98093BC00089585ECA9
:101190008093BC00089585E88093BC0008958093F7
:1011A000BB000895A4EEB1E0EC9181E08E0F8C932A
:1011B0008091BB00F0E0ED53FE4F808308952091B5
:1011C000E40130E08091E30190E0019728173907AE
:1011D00014F485EC01C085E88093BC0008958091EB
:1011E000C30186951092E701E091E501F091E601D7
:1011F000309719F064EC71E009940895EF92FF9232
:101200001F93CF93DF9300D01F92CDB7DEB7182F77
:1012100079014B8369837A830E94B50881E08093CA
:10122000E701110F1093C3014B81840F8093E301F9
:101230001092E401F092E601E092E50150E069814C
:101240007A8184EC91E00E94A40D85EA8093BC0031
:101250000F900F900F90DF91CF911F91FF90EF9023
:101260000895EF92FF921F93CF93DF931F92CDB714
:10127000DEB7182F7A0169830E94B50881E0809358
:10128000E701812F880F81608093C30169816F5FBF
:101290006093E3011092E401F092E601E092E5012F
:1012A00085EA8093BC000F90DF91CF911F91FF9052
:1012B000EF9008951F920F920FB60F9211240BB664
:1012C0000F922F933F934F935F936F937F938F93DF
:1012D0009F93AF93BF93EF93FF938091B900887F63
:1012E000883279F038F4803161F0883151F08830FB
:1012F00019F507C08035C9F08835E1F08034E1F494
:1013000016C0E091E4018091E301E817A8F481E0C0
:101310008E0F8093E401F0E0ED53FE4F80818093C7
:10132000BB0085E88093BC000CC00E94D2080E94DC
:10133000DF0807C00E94D20884E98093BC000E94A5
:10134000EF08FF91EF91BF91AF919F918F917F91A6
:101350006F915F914F913F912F910F900BBE0F9026
:101360000FBE0F901F901895E82FF0E0623040F408
:10137000EE55FD4FE491EE0F81E08627E82B08C083
:101380009F01220F331FE82FEE1FEE27EE1FE22BE7
:101390005A9A529A5B9A539A98E08E2F8095881F9A
:1013A0008827881F880F880F880F2BB1277F822BF3
:1013B0008BB98AE68A95F1F700C05A988AE68A9531
:1013C000F1F700C05A9A80EA8A95F1F7EE0F915032
:1013D00021F75B9A8AE68A95F1F700C053985298F4
:1013E00081E00895CF93DF935A9A529A5B9A539A69
:1013F0005A9A5B988AE68A95F1F700C05A988AE66D
:101400008A95F1F700C05A9A8AE68A95F1F700C0EA
:101410005B9A53985298C1E0D0E0CE019370892B2B
:1014200029F40E94C3010E945D0504C085E38A95EA
:10143000F1F700004B9B07C02196CC3D87E3D8070E
:1014400061F780E018C0C1E0D0E0CE019370892B35
:1014500029F40E94C3010E945D0504C085E38A95BA
:10146000F1F700004B9906C02196CC3D87E3D807E1
:1014700061F7E7CF81E0DF91CF910895109262028A
:101480008FE1809361020895E091620291E09E0FE6
:101490009F7120916102921741F0F0E0E351FD4FFE
:1014A00080839093620281E0089580E00895209106
:1014B00061022F5F2F7130916202231761F0009754
:1014C00061F0E22FF0E0E351FD4F3081FC01308309
:1014D0002093610202C080E0089581E0089599B1EF
:1014E000982B96FF09C080FF02C090E801C090E0F1
:1014F00085B18F77892B85B90895CF93DF93EC0160
:10150000009709F47FC0188214BC84E085BD16BC26
:1015100081E085BB91E080E020E0A89918C035E328
:101520003A95F1F700004A9B08C0911108C02F5F5F
:10153000880F4B9B04C0816002C090E001C091E025
:10154000833039F0283048F3843038F307C08330D3
:1015500029F4253010F0A89B10C083E0A89B03C09D
:10156000806888834FC016BC91E095BB90E8A8992D
:10157000F7CF4A99FCCF96BDFACF16BC81E085BB68
:1015800030E0E4E6F2E080E020E090E041E0A89B7B
:1015900002C03F5F45BB55E35A95F1F700004A99F9
:1015A0001DC08130A1F4983061F4DF0111962083D1
:1015B000CD01845692408097DCF416BCFD0120E0FA
:1015C00090E09F5F220F4B9B0BC0216009C08330CE
:1015D00048F48F5F4B9B07C0216005C081E003C0CA
:1015E00082E001C083E03A3090F2983029F4DF01C4
:1015F000FD0131962C9316BCE456F240E88384E654
:1016000092E002C080E090E0DF91CF9108950895CC
:101610000895CF93DF93CDB7DEB728970FB6F89430
:10162000DEBF0FBECDBF1A8280E8809361001092AA
:10163000610053985B9A52985A9A279A2F9881E0A2
:10164000809363020E946F0A81B18C6F81B982B16D
:101650008C6F82B920E0E22FF0E0BF01685D7E4F21
:10166000DB014C914423C1F0EE0FFF1FE85FFE4FFA
:1016700080819181DC019A963C919A974095342320
:101680009A963C930190F081E02D83A5DB019C911B
:10169000892B83A72F5FDFCF84B1807884B985B190
:1016A0008F6785B954985C9A8198899A82988A9AAA
:1016B00083988B9A8098889887E880937A0080E452
:1016C00080937C0056985E9A57985F9AE4E8F2E01F
:1016D0001192B2E0EE3DFB07D9F70E944A070E9443
:1016E000B5088FEF0E945D050E94C301182F0E946C
:1016F000B508812F0E945D050E943E0A312C00E052
:1017000010E0A12CB12CE12CF12C412C512CE2E069
:101710002E2E0E94C3018C830F5F1F4FE22DE370BA
:10172000DE2EDD2021F10E94F20918167CF083B133
:101730008C7429F4549A5C98529A5A9804C052981E
:101740005A9A54985C9AE12CF12CEBCFA22DA77AEF
:10175000FA2E21FEC7C10E943E0A62E08DEF0E9470
:10176000B4092F2D28622C7F222EE12CF12C76E05B
:10177000872E912C30E044E020FCBAC0842F8C7F6F
:1017800009F4ACC082B18C6F842782B9FAE1FA9572
:10179000F1F700C023FE1EC024FE06C04B9B20C0F4
:1017A000222D277E222E1CC04B9908C0522D50613D
:1017B000252E00E010E0E12CF12C14C06FEFE61AAA
:1017C000F60A79EBE7167FE6F70650F0822D816086
:1017D000282E06C00630110528F04B9903C088C09A
:1017E00000E010E0932FE92FE31BF0E0DF01A85D9C
:1017F000BE4F5C91552309F472C020FC70C0EE0FFF
:10180000FF1FE85FFE4F0190F081E02D81A5852349
:101810008B835B8181E0511180E08B83692E712C79
:10182000D301AC57BD4F6D018C916B81582F517016
:10183000561709F44CC086958F5F803208F442C079
:101840009B3319F55B81513009F03AC05325509311
:101850006302852F38874F835D839E830E946F0AC2
:10186000F301EE55FD4F8491B0E83B9EB001112489
:10187000862B0E94440A38854F815D819E818111AB
:101880001EC0E22DE0642E2E1AC0F301EE55FD4F6E
:1018900084916B81F1E06F2720E8629FB0011124F1
:1018A000862B38874F839E830E94440A38854F8158
:1018B0009E81811105C0522D5064252E01C0352E08
:1018C0008B8108C0880F852BFD01808305C0823085
:1018D00018F08250D6018C939F5F85CF932F440FD1
:1018E000B1E08B1A91088114910411F0392F44CF83
:1018F00033B13F77912CEAE5E90DA92DB0E0A05076
:10190000BF4F8C91882351F1832311F01B8202C0B9
:10191000F1E0FB83F0E09B81AF014C575D4F6A0122
:10192000DA018C9181708917B9F0EE55FD4FE49181
:101930009B81B1E09B27F0E89F9FC00111248E2B73
:1019400038870E94440A3885811103C0222D206403
:10195000222E8B81D6018C939394CDCF25FE0BC084
:101960008EEF0E94440AB22DBF7D2B2E109263028F
:1019700080E00E946F0A822D8C71B9F4411014C06E
:10198000CE0101960E94570A882379F062E089818E
:101990000E94B409E22DE8602E2E00E010E0E12C58
:1019A000F12C42E0442E01C04A94822D887109F046
:1019B0006AC0F1E05F1210C00230110508F463C084
:1019C0008FE70E94AE0583EF0E94440A83EF0E94D6
:1019D000440A80E40E946F0A0630110508F452C0E0
:1019E0004B9947C04A9945C0CE0102960E947D0A94
:1019F000982EC92E6A8167FD7CC06623D1F10E94B2
:101A00007604D82E2FEF821313C081E40E946F0A50
:101A10008BEF0E94440A8BEF0E94440A80E00E94F0
:101A2000440A00E010E034E0432E552453942BC0C8
:101A30001816A4F48BEF0E94440A8BEF0E94440A0C
:101A40008D2D0E94440A092D1C2DD90CD8018D9191
:101A50008D010E94440AD012F9CF03C083EF0E9487
:101A6000440A83EF0E94440A00E010E024E0422E82
:101A700009C00130B4E01B0728F02C8120682C83BA
:101A800005E010E0512C8C810E945D058091DE0202
:101A90009091E202892381709091E102892341F0C3
:101AA00022FC0BC0422D4460242EA12CB12C05C079
:101AB00052985A9A522D5B7F252E22FE10C063E069
:101AC000A60EB11C74E1A716B10408F422CE549AF4
:101AD0005C98529A5A98822D877E282E1ACE549856
:101AE0005C9A17CE62E089EF0E94B4092F2D28601E
:101AF0003ACE00E010E0C6CFAA1BBB1B51E107C0E5
:101B0000AA1FBB1FA617B70710F0A61BB70B881F8D
:101B1000991F5A95A9F780959095BC01CD0108951C
:101B200097FB072E16F4009407D077FD09D00E948A
:101B30007C0D07FC05D03EF4909581959F4F08954C
:101B4000709561957F4F0895FB01DC0102C0019003
:101B50000D9241505040D8F70895F999FECF92BDAB
:101B600081BDF89A992780B50895262FF999FECF5F
:101B700092BD81BDF89A019700B4021639F01FBAE0
:101B800020BD0FB6F894FA9AF99A0FBE0895262F41
:101B9000F999FECF1FBA92BD81BD20BD0FB6F89452
:0E1BA000FA9AF99A0FBE01960895F894FFCFB5
:101BAE004020100804020100FDFFFDFFFDFFFDFFB8
:101BBE00FDFFFDFFFDFFFDFF03000300030003001B
:101BCE0003000300030000000102040810204080FF
:081BDE00010204081020400080
:00000001FF
