:100000000C9428020C9447020C9447020C9447026B
:100010000C9447020C9447020C9447020C9447023C
:100020000C9447020C9447020C94A50E0C94130FE9
:100030000C9447020C9447020C9447020C9447021C
:100040000C9447020C9447020C9447020C9447020C
:100050000C9447020C9447020C9447020C944702FC
:100060000C9447020C94BC090C94E6090C944702CA
:100070000C9447020C9447020C9447020C944702DC
:100080000C9447020C9447020C9447020C944702CC
:100090000C94240B0C944702020007026E6002705D
:1000A000BF000000140028003C00500063007700EF
:1000B0008B009F00B300C700DB00F10008012001A6
:1000C000390154016F018C01AB01CA01EB010E0231
:1000D000320257027D02A502CE02F9022503530324
:1000E0008203B303E50318044D048404BC04F6043E
:1000F00032056F05AD05ED052F067306B806FE0641
:1001000047079107DD072A087A08CA081D097209FE
:10011000C809200A790AD50A320B910BF20B550C4B
:10012000BA0C200D880DF20D5E0ECC0E3C0FAE0FFA
:10013000211097100E1188110312801200138113E1
:100140000414891410159A152516B2164117D317E1
:100150006618FB1893192C1AC81A661B061CA71CD4
:100160004C1DF21D9A1E441FF11FA0205021042295
:10017000B92270232A24E524A32564262627EB2709
:10018000B1287B29462A142BE32BB62C8A2D612E0D
:100190003A2F1530F230D231B43299338034693588
:1001A00055364237333825391A3A123B0B3C073D56
:1001B000063E073F0A4010411842234330443F4562
:1001C000514665477C489549B14ACF4BF04C134E98
:1001D000394F61508C51B952E9531B5550568757CE
:1001E000C158FE593D5B7E5CC25D095F52609E61F5
:1001F000ED623E649165E86640689C69FA6A5B6CF2
:10020000BE6D246F8D70F8716673D7744A76C077AF
:100210003979B47A327CB37D377FBD804682D18311
:100220005F85F08684881B8AB48B508DEF8E90900A
:100230003592DC9386953297E298949A499C019E78
:10024000BB9F79A139A3FCA4C2A68BA856AA25AC52
:10025000F6ADCAAFA1B17BB357B537B719B9FFBA7D
:10026000E7BCD2BEC0C0B1C2A5C49CC695C892CAE4
:1002700091CC94CE99D0A1D2ADD4BBD6CCD8E0DA73
:10028000F7DC11DF2EE14EE371E597E7C0E9ECEB17
:100290001BEE4DF082F2BAF4F5F633F974FBB8FDBB
:1002A000FFFF7543424140543F473E3D3C3B3A537C
:1002B0002952312E2D27262524232221201F1E35A9
:1002C0005028302F13120C181C1715081A142B4F16
:1002D0004C3234330F0E0D0B0A0907160439512A1C
:1002E0002C3738373610110519061B1D6456625914
:1002F0005C5F585A5D60635B5E615755080402019C
:1003000080402000000000000000000B08070606E7
:100310000B050B04030202010B000A08070706067F
:100320000505040303020201000E0908070706057C
:1003300005040403020201000C090807070606056C
:10034000040403030201000D09040E070707050555
:100350000404030202010B0C0C0C0B0C0C0C0B0C18
:100360000C0C0B0C0B0001000008080E0000000034
:10037000000000005F595857565C555B545352516A
:10038000505A454C0D0C0B0A0908070605040302D8
:1003900001004F441B1A19181716151413121110C7
:1003A000424E462B2A292827262524232221206253
:1003B0004D4140403A393837363534333231304A9E
:1003C0000F1D2D3D431E2E3E3C1F2F3F5E5D66647C
:1003D0006063676561000000000000000009022200
:1003E00000010100C03209040000010301010009FD
:1003F0002111010001223F000705830308000105C8
:10040000010906A101050719E029E7150025017575
:100410000195088102950175088101950575010511
:100420000819012905910295017503910195067539
:1004300008150025650507190029658100C012010E
:10044000000200000020EB03FB2F00010000000170
:1004500011241FBECFEFD0E2DEBFCDBF11E0A0E080
:10046000B1E0E0EBF9E200E00BBF02C007900D92B3
:10047000AC33B107D9F723E0ACE3B1E001C01D9282
:10048000AA33B207E1F70E94F9110C94D6140C9428
:100490000000ECE7F0E09081907E8770982B9083CD
:1004A000EAE7F0E08081806480830895809178009D
:1004B000909179000895662311F0842B089540955A
:1004C00084230895883070F4633060F429E0829FBB
:1004D000C001112423E0629F800D911D1124835DD2
:1004E0009D4F08958CE692E00895E82F8091FF01DA
:1004F000E83020F4F0E0E850FE4F80810895982F16
:1005000080910A02662321F0892B80930A020895C4
:1005100090958923FACF80910A0290917F029923C6
:1005200071F0806180930A029091F701923049F155
:1005300040F491110DC080E00E94490218C08F7EE6
:10054000F1CF933001F1943071F11092F70114C0A2
:1005500080917A0084FF10C00E9456029C01909105
:100560000A022335334058F0916090930A0280913B
:10057000F7018F5F8093F70180910A0208959E7FB3
:10058000F4CF81E0D9CF80917A0084FFF5CF0E942B
:1005900056029C0190910A022130324010F0926084
:1005A000E4CF9D7FE2CF7A990AC0846080930A02EB
:1005B0007B9907C0886080930A0285E0DBCF8B7F40
:1005C000F5CF877FF8CFCF92DF92EF92FF920F9314
:1005D0001F93CF93DF9300D00F92CDB7DEB77C018E
:1005E000362F69834A832B83641708F04CC0421767
:1005F00008F451C0A0E0621708F0A2E0DD24D39413
:10060000E1E0F0E0EC0FFD1FED0DF11DE08181E078
:1006100090E08C0F9D1F8A0F911DDC018C91CE2ED6
:10062000C81AF0E0C7FC3DC010E000E0309771F060
:10063000AFEFCA9EC0011124BF010E947D148B013F
:100640006F3F710519F014F00FEF10E070E060E0FB
:10065000CC2009F43FC06C2D70E0DD2089F1832FA0
:1006600090E031E0D31609F44EC09C01241B3109FF
:100670004BEA429FC001439F900D11240E949114A8
:1006800065557D4F27C0621750F0A1E0421708F072
:10069000A2E0D12CB5CFA0E062E0D62EB1CFA1E090
:1006A000FBCF309751F0B0E8CB9EC0011124BF01C1
:1006B0006F5F7F4F75956795C0CF10E000E0CBCF9F
:1006C000421B550B2BEA249FC001259F900D11243E
:1006D0000E9491147370D70111967C936E931396B8
:1006E0001C930E9312971596FC93EE9314970F900C
:1006F0000F900F90DF91CF911F910F91FF90EF908E
:10070000DF90CF90089530E0281B390B4BEA429FD1
:10071000C001439F900D11240E9491146A5A7E4F8C
:10072000D9CFAF92BF92CF92DF92EF92FF920F9309
:100730001F93CF93DF938C017B01EA01F90120978E
:1007400009F4B2C0CB016BEA70E00E94911435E568
:10075000369FC001379F900D961B11248E0D9F1D53
:1007600036E0389FA001399F500D11248FEF90E0A3
:10077000DC01AC1BBD0BB595A795B595A795AE9FB4
:100780005001AF9FB00CBE9FB00C1124A6E0B594F1
:10079000A794AA95E1F76A01B3E0D594C794BA95F6
:1007A000E1F7CC9ED001CD9EB00DDC9EB00D1124A2
:1007B000AA0FAB2FAA1FBB0B6C01CA1ADB0AD59478
:1007C000C794D594C794CE9ED001CF9EB00DDE9E27
:1007D000B00D112455954795559547956C01C41A50
:1007E000D50AD594C794CC9EA001CD9E500DDC9E19
:1007F000500D1124440F452F441F550B841B950B9E
:10080000AC0155954795559547954E9FC0014F9F13
:10081000900D5E9F900D112436E0959587953A9541
:10082000E1F7AD01F6E055954795FA95E1F7B7FD8B
:1008300040E097FD80E0B7FCA12C3A2D62307105B5
:1008400059F1A1E0EA16A2E0FA0644F46115710537
:1008500071F061307105E1F0942F0BC063307105C8
:10086000F9F064307105C1F79E2F282F02C09A2D30
:10087000382FF801208331839283DF91CF911F912C
:100880000F91FF90EF90DF90CF90BF90AF900895C1
:100890009A2D3E2F242FEDCF982F2A2D3E2FE9CFD2
:1008A0009E2F2A2D342FE5CF922FF8CFCF92DF92B3
:1008B000EF92FF920F931F93CF93DF93EC01362FAC
:1008C0004881D980EA814D1508F043C0DE1608F44E
:1008D00048C020E04E1708F022E0F1E0CE018F0F73
:1008E000911DDC010C91DE01A20FB11D8C91C02E77
:1008F000C81A10E0C7FC3AC0F12CE12C0115110513
:1009000079F0BFEFCB9EC0011124B8010E947D1485
:100910007B016F3F710521F01CF0EE24EA94F12C6D
:1009200070E060E0CC20E9F16C2D70E0FF2371F104
:1009300050E0F13009F449C04D1951092BEA249FC8
:10094000C001259F900D11240E94911465557D4F83
:1009500028C04E1748F021E0DE1608F022E0F0E053
:10096000BDCF20E0F2E0BACF21E0FCCF01151105A8
:1009700051F020E8C29EC0011124B8016F5F7F4F83
:1009800075956795C3CFF12CE12CCECFAD2DAE1B65
:10099000BB0B2BEA2A9FC0012B9F900D11240E94B4
:1009A0009114B4E03B9FC0011124680F791F73704C
:1009B0009801A701CE01DF91CF911F910F91FF9078
:1009C000EF90DF90CF900C949103F0E0E41BF50BD7
:1009D0002BEA2E9FC0012F9F900D11240E9491148D
:1009E0006A5A7E4FDECF0F931F93CF93DF9300D0D1
:1009F0000F92CDB7DEB735E13A95F1F70000E091FF
:100A00000002F0E0ED5EFD4F20812F3FB9F489E454
:100A100080930B0210920C0230E020E042E06BE089
:100A200072E084E30E94DD0A10922C020F900F9076
:100A30000F90DF91CF911F910F910895E181822F47
:100A4000880F820F880F8F5F80930B02822F90E0B8
:100A50004E2F50E0FA01EE0FFF1FE40FF51FA9E043
:100A60002A9FE00DF11D1124E35DFD4F4081498374
:100A700021812A8362816B83FC01E850FE4F308123
:100A8000313009F443C0323009F44BC0311166C033
:100A9000898190E0880F991FFC01EE55FF4FE4918A
:100AA000E0930C02FC01ED55FF4FE491E0930D0241
:100AB0008A8190E0880F991FFC01EE55FF4FE49169
:100AC000E0930E02FC01ED55FF4FE491E0930F021D
:100AD0008B8190E0880F991FFC01EE55FF4FE49148
:100AE000E0931002FC01ED55FF4FE491E0931102F9
:100AF000809100028E5F8093000223EF34E047E094
:100B00006BE072E084E30E94DD0A90CFFC01EB58B9
:100B1000FD4F60816F5F6083CE0101960E94560495
:100B2000B7CFFC01EB58FD4F20812F5F208327FDBD
:100B30002095FE013196AE014C5F5F4F8191DF0140
:100B40001197829FC00111248096880F892F881FDA
:100B5000990B8C934E175F0789F79ACFFC01EB58DE
:100B6000FD4F90819F5F908397FD909530E0420FFD
:100B7000532F511D420F531F460F511D5595479539
:100B800055954795FE0131968E010C5F1F4F292F19
:100B900030E0619170E0641B750B629FC001639F40
:100BA000900D729F900D1124805C9F4FBF0161508A
:100BB0007109880F892F881F990B840FDB018C9393
:100BC0000E171F0731F764CF30E020E0682F70E088
:100BD000FB01022E02C0F595E7950A94E2F7422F39
:100BE0002F5F3F4FE0FD10C02730310589F78FEFB1
:100BF0000895FB01022E02C0F595E7950A94E2F7ED
:100C0000E0FD07C02F5F3F4F2730310594F32FEFF2
:100C10003FEF87FF0CC02F3F320709F0422F81E0E2
:100C200090E001C0880F4A95EAF7806808952F3F49
:100C30003F4FE9F281E001C0880F4A95EAF7089535
:100C4000BF92CF92DF92EF92FF920F931F93CF93B9
:100C5000DF9300D00F92CDB7DEB77C01FC012FEF00
:100C600029833FEF3A8379E0B72E611121C09A8141
:100C70009F3F09F4D1C09F3709F0A0C08AEBD7018C
:100C80008C9383E011968C9311974F9993C085E0D4
:100C900012968C9383E00F900F900F90DF91CF917D
:100CA0001F910F91FF90EF90DF90CF90BF9008952C
:100CB000DF018D916D01082F0F71BFEFB60FBB8360
:100CC000982F907E903809F46FC048F4903409F45E
:100CD00048C09036F9F0903261F11B8227C0903AFB
:100CE00009F465C0903CC9F7BB81BB23F9F06250A1
:100CF0006B836F0122E0C20ED11C8871B9F481812F
:100D000010E0F801E850FE4F80830B581D4FD801CA
:100D10001C920CC02B81222349F062506B836F011F
:100D200032E0C30ED11C887109F40A836B81F6018D
:100D30009CCF9B819923D1F362506B836F01A2E01A
:100D4000CA0ED11C887191F7818110E0F801EE5F25
:100D5000FD4F80830E94E405F801ED5DFD4F808327
:100D6000E5CFBB81B43008F4B8CF65506B83918177
:100D70006F0125E0C20ED11C9330C0F68871B1F628
:100D8000428133812481892F90E0FC01EE0FFF1F07
:100D9000E80FF91FB09EE00DF11D1124E35DFD4F3A
:100DA000408331832283C2CF3FE73983BFCF8FE7B0
:100DB0008A83BCCF86E0F70182836CCFFA818F2FC4
:100DC000FF0F990BFC01EE5FFD4F2081D7012C93A3
:100DD000BA8129E0B202F0011124E35DFD4FD70191
:100DE0009701275F3F4F408111964C9311974181A6
:100DF00012964C931297428113964C931397339605
:100E000013962A173B0779F788509E4FDC018C9187
:100E1000F70182878BE03FCF81E0F981FF3F09F442
:100E200080E0819538CF0F931F93CF93DF93C82F26
:100E3000D0910102D81709F43EC00E94990A9091FE
:100E40002C02892BC1F5DC27C7FDDFE1CF7102E061
:100E500012E030E020E0E3E1F2E05C2F5068422F46
:100E6000D8018D918D01682F6D2311F4DF3179F454
:100E700040838523B9016D5D7D4FDB014C9148179F
:100E800001F18F7741E009F440E0418332962F5F12
:100E90003F4F2730310519F781E080932C028FEF07
:100EA000808381831092000270E060E080E00E9405
:100EB000F304C09301028C2FDF91CF911F910F910A
:100EC000089542E0E2CF6F927F928F929F92AF920D
:100ED000BF92CF92DF92EF92FF920F931F93CF9327
:100EE000DF936AEB80E091E00E94C81469E581E03D
:100EF00091E00E94C81482E0882E82E0982E98EF3C
:100F0000692E91E0792E2DE2C22E22E0D22E3CE015
:100F1000E32EFF24F394F40161914F01E701299737
:100F2000C7010A970E94B61486015E01F80160812C
:100F3000CE010E94B614F8016181CE0101960E9493
:100F4000B6142396F8016281C50102960E94B61478
:100F50000D5F1F4FCE15DF0541F7F30161913F0192
:100F6000CE010E94B614CE010B967C0199E0C90E09
:100F7000D11CC935D14079F66AEB80E091E00E943E
:100F8000B61469E581E091E0DF91CF911F910F9157
:100F9000FF90EF90DF90CF90BF90AF909F908F9099
:100FA0007F906F900C94B6142F923F924F925F9265
:100FB0006F927F928F929F92AF92BF92CF92DF9269
:100FC000EF92FF920F931F93CF93DF9300D00F9276
:100FD000CDB7DEB781E091E00E94AE14883509F408
:100FE00078C0893509F05FC087E0898380E091E0AF
:100FF0000E94AE148A3B09F056C082E0282E82E09F
:10100000382E93E2892E92E0992E28EF622E21E06D
:10101000722E3DE2A32E32E0B32E6101ECE0F1E04E
:10102000FB83EA830A811B81095011098A819B8114
:101030000A970E94AE14F60181936F010E94E405A5
:10104000F40181934F0175012801C8010E94AE147B
:10105000F7018083C80101960E94AE14F7018183D5
:101060000D5F1F4FC20102960E94AE14F7018283EA
:10107000F3E0EF0EF11C8A819B810817190721F715
:101080000E94AE14F30181933F018A819B810B96EC
:101090009B838A8399E0A90EB11C8C2D8219E9816A
:1010A000E81708F0BFCF0F900F900F90DF91CF910E
:1010B0001F910F91FF90EF90DF90CF90BF90AF9076
:1010C0009F908F907F906F905F904F903F902F9068
:1010D000089596E099838ACFFB01808180932B024B
:1010E00008950F931F93CF93DF938AE080930202BA
:1010F00086E88093030286E08093040281E0809377
:101100000502809306028093070280E18093080223
:10111000C2E0D2E003E212E089910E94E405F80106
:1011200081938F01F2E0C930DF07B1F7E8EFF1E01A
:10113000A5E7B2E011921D9281E0EF3FF807D1F7E9
:1011400010922D0210922E0210922F02109236024F
:10115000109237021092380210923F021092400211
:1011600010924102109230028FEF809331022AEEEA
:10117000209332028093330290E9909334021092CC
:1011800035028093390290933A0210923B021092FA
:101190003C0220933D0280933E0210924202209333
:1011A000430280934402809345029093460210923A
:1011B000470220E22093480291E09093490234E0F4
:1011C00030934A0280934B0233E030934C0236E472
:1011D00030934D022093510235E03093520236E0B5
:1011E000309353028093540233E23093550236E534
:1011F0003093560220935A0229E020935B0228E0A4
:1012000020935C0280935D0283E480935E0286E615
:1012100080935F029093630282E38093640286E28C
:101220008093650281EA809366021092670289ECDE
:101230008093680290936C0280E580936D0280EA4F
:1012400080936E0280E380936F028093700280EB44
:10125000809371021092FF01DF91CF911F910F9146
:1012600008951F93CF93DF9310920A021092F70113
:10127000109201028198899882988A9883988B9815
:101280008098889887E880937A0080E480937C0037
:101290000E94860A559A5D9AD0E0C0E0CE01019680
:1012A000FE01E856FF4F4491411134C0CAE4DFEF1C
:1012B0001FE5C0930B02D0930C02D0930D02109344
:1012C0000E0230E020E044E06BE072E084E30E9434
:1012D000DD0ACD5FCF3569F70E9471088FE7DF9196
:1012E000CF911F910C94D407E491ED932150FC0110
:1012F000E856FF4F01962F3FB9F7842F90E00196F3
:10130000C80FD91F30E020E06BE072E084E30E9458
:10131000DD0AC4CF242FABE0B2E0E8CF1092860103
:101320001092850110928401109283011092810124
:10133000089590918401809183019817D1F0E091F4
:101340008301EF5FEF71E0938301F0E0E957FE4F17
:1013500080818D3029F49091810191509093810189
:101360002091820130E0322F2227820F932F911D8E
:10137000089580E091E008952F932FB72F932BB716
:101380002F938F939F93EF93FF938091C800909139
:10139000CE00E0913E01EF5FEF7120913D012E17ED
:1013A00099F08871E0933E01F0E0EF5BFE4F90838F
:1013B00080933C01FF91EF919F918F912F912BBFD3
:1013C0002F912FBF2F91189582E0F2CF8F938FB777
:1013D0008F938BB78F939F93EF93FF9390914001DF
:1013E00080913F019817A9F0E0913F01EF5FEF7105
:1013F000E0933F01F0E0EF59FE4F80818093CE00F3
:10140000FF91EF919F918F918BBF8F918FBF8F91A4
:1014100018958091C9008F7D8093C900F1CF9C0100
:101420001092400110923F0110923E0110923D0136
:1014300097FF04C082E08093C8003F773093CD00CF
:101440002093CC0088E98093C90086E08093CA008D
:10145000089590913E0180913D01981799F0E09197
:101460003D01EF5FEF71E0933D01F0E0EF5BFE4F78
:10147000208190913C01892F90E0982F8827820F3E
:10148000911D089580E091E00895909140019F5F43
:101490009F7120913F012917E1F3E92FF0E0EF5907
:1014A000FE4F8083909340018091C90080628093B9
:1014B000C9000895CF93DF93EC018991811103C096
:1014C000DF91CF9108950E94450AF7CFCF93DF9324
:1014D000EC01FE0184912196811103C0DF91CF912F
:1014E00008950E94450AF5CF80913E0120913D016B
:1014F00090E04F96821B91096FE170E00E94911479
:10150000089580913D0180933E01089580E280938B
:10151000B8001092B9001092EB01789484E08093A7
:10152000BC0008958091EB018111FCCF88EC91E023
:1015300008958091EB01089585EA8093BC00089599
:1015400084E98093BC00089585EC8093BC000895E5
:1015500085E88093BC0008958093BB000895A7ECB4
:10156000B1E09196EC91919781E08E0F91968C93DA
:101570008091BB00F0E0E953FE4F808308952091F5
:10158000E8018091E7018150990B2817190624F48E
:1015900085EC8093BC00089585E8FBCF8091C7015E
:1015A0001092EB01E091E901F091EA01309721F00E
:1015B00068EC71E0869509940895EF92FF920F937D
:1015C0001F93CF93DF93D82F8B01C42F79010E94F3
:1015D000920A81E08093EB01E7ECF1E0DD0FD0832C
:1015E0008C0F80A311A2E2A2F3A24C2F50E0B8010D
:1015F00088EC91E00E94A51485EA8093BC00DF91FD
:10160000CF911F910F91FF90EF9008950F931F932B
:10161000CF93DF93C82FD62F8A010E94920A81E0D0
:101620008093EB01E7ECF1E0CC0FC160C083DF5F9A
:10163000D0A311A202A313A385EA8093BC00DF917B
:10164000CF911F910F9108951F920F920FB60F9295
:1016500011240BB60F922F933F934F935F936F9389
:101660007F938F939F93AF93BF93EF93FF9380915B
:10167000B900887F803409F43FC0A8F5883169F04B
:1016800050F4883051F0803141F084E98093BC00FF
:101690000E94CE0A15C08832C1F7E091E80180911E
:1016A000E701E81790F781E08E0F8093E801F0E002
:1016B000E953FE4F80818093BB0085E88093BC0096
:1016C000FF91EF91BF91AF919F918F917F916F911A
:1016D0005F914F913F912F910F900BBE0F900FBED6
:1016E0000F901F901895803529F0883571F60E946B
:1016F000AF0ACBCF0E94AF0A0E94BF0AE1CFE82F0A
:10170000F0E0623060F5EC58FC4FE491EE0F81E0C0
:101710006827E62B5A9A529A5B9A539A98E020E0EF
:10172000E7FF28E08BB1877F822B8BB98AE68A9509
:10173000F1F700C05A988AE68A95F1F700C05A9AE4
:1017400080EA8A95F1F7EE0F915049F75B9A8AE6A5
:101750008A95F1F700C05398529881E00895EE0FF2
:10176000FF1F881F8827881FE82BD4CF1F93CF9394
:10177000DF935A9A529A5B9A539A5A9A5B988AE6DE
:101780008A95F1F700C05A988AE68A95F1F700C069
:101790005A9A8AE68A95F1F700C05B9A5398529854
:1017A000C1E0D0E011E0CE019370892BC9F40E9412
:1017B0008B020E941307B89B03C017BB0E94BC1189
:1017C0004B9B13C00E94A20E811105C02196CC3DF7
:1017D00087E3D80741F780E0DF91CF911F9108950B
:1017E00085E38A95F1F70000E6CFC1E0D0E011E093
:1017F000CE019370892B89F40E948B020E941307FB
:10180000B89B03C017BB0E94BC114B990BC021961B
:10181000CC3D87E3D80761F7DECF85E38A95F1F702
:101820000000EECF81E0D8CF10927E028FE180934E
:101830007D020895E0917E0291E09E0F9F712091BC
:101840007D02291741F0F0E0E75FFC4F8083909321
:101850007E0281E0089580E00895FC0180917D0280
:101860008F5F8F7190917E02981761F0309741F0F1
:10187000A82FB0E0A75FBC4F9C91908380937D021E
:1018800081E0089580E0089599B1982B96FF04C0F7
:1018900080FD2F9A80FF2F980895CF92DF92EF92CC
:1018A000FF920F931F93CF93DF930F92CDB7DEB7C5
:1018B00083E4809380021092810210E210938202EE
:1018C000109283021092840284E480938502109225
:1018D0008602109287021093880210928902A5E472
:1018E000EA2EE0928A0210928B0210928C021092E1
:1018F0008D0210938E0200E400938F0210929002EA
:10190000109291021092920210929302B1E4DB2E97
:10191000D092940210929502109296021092970221
:101920001092980282E4F82EF092990210929A0294
:1019300010929B0210929C0210929D026EE180E830
:1019400092E00E9420060093800281E08093810251
:101950001092820290E59093830210938402D092B9
:1019600085028093860210928702E092880295E2B7
:1019700090938902F0928A0280938B0210928C02DB
:1019800000938D0220E320938E0223E220938F02A6
:101990008093900224E2209391028093920290938C
:1019A0009302809394021093950282E080939602B2
:1019B00081E28093970284E08093980282E2809390
:1019C000990288E080939A026BE180E892E00E949D
:1019D000200683EC809380021092810284EC809335
:1019E00082021092830285EC809384021092850219
:1019F00066E080E892E00E94200660E081E00E94BC
:101A00007F0260E082E00E947F0260E084E00E944A
:101A10007F0260E080E10E947F0260E088E00E9437
:101A20007F0280680E9413079FE7F92ED12CE12CDA
:101A30000E94A20E811170C00F90DF91CF911F9173
:101A40000F91FF90EF90DF90CF9008957E2F82B19D
:101A50008C6F862782B98AE18A95F1F700C050E041
:101A6000E52FE70F852F90E0DC01A85DBE4F1C91AC
:101A7000111159C0660F2150310941F723B12F7759
:101A800090E0EAE5E90FA92FB0E0A050BF4F8C919C
:101A900081116CC01093ED010D1141E01E1141E068
:101AA000802F90E0863008F46BC0442341F00E9400
:101AB000780E8FE39CE90197F1F700C00000809158
:101AC00029038F1531F1F0902903CF2CD12CC601B9
:101AD00095958795817080937F020E94440C609158
:101AE0007F0282E00E947F0260917F0280E10E947B
:101AF0007F026F2D617084E00E947F02B6017595B0
:101B0000679575956795617088E00E947F020E94D5
:101B10001307D02EE12E8CCF26E030E040E000E02D
:101B200070E064E094CF880F991FDC01A85FBE4F7E
:101B30000D90BC91A02D99968C91182319839981B1
:101B400081E0911180E089838981813069F40630D8
:101B500058F4F0E0EE55FD4FE491A02FB0E0A25113
:101B6000BE4FEC930F5F41E05F5F7ACF822331F489
:101B7000F0E0EE55FD4FE4911E2B41E09F5F81CFD9
:101B8000FC01E251FE4F108201968CCFFC01892BA3
:101B9000A1F0108214BC84E085BD16BC81E085BB39
:101BA00031E090E080E0A89B0AC09330D9F0A89B78
:101BB0002BC090689083F0E0E0E0CF01089525E32A
:101BC0002A95F1F7000049B1242F247042FF08C084
:101BD000311111C08F5F990F4B9B0FC0916021E0B5
:101BE000933061F4853028F085B3582F517080FF11
:101BF00015C093E0DCCF232FF3CF21E0883010F025
:101C00009430A8F6322FCFCF16BC81E085BB80E898
:101C1000A899CFCF4A99FCCF86BDFACF16BC81E0F8
:101C200085BB80E040E090E020E832E061E0A89BE6
:101C300002C05F5F65BB75E37A95F1F700004A99D2
:101C400027C0913091F4483051F4D9018D939D0112
:101C5000A058B240909794F416BC80E040E04F5FEB
:101C6000880F4B99816092E005C0933098F49F5F94
:101C70004B9981605A30D9F6483021F4D9018D93BF
:101C80009D0116BC205832402083E0E8F2E095CF59
:101C900091E0F0CF93E0EECF089508958091D700C2
:101CA00081608093D70084E189BD86E189BD09B454
:101CB00000FEFDCF8091D80080698093D80080918C
:101CC000D8008F7D8093D8008091E0008B7F809337
:101CD000E0008091E0008E7F8093E0008091E20040
:101CE0008C608093E2001092EC0190E080E0089517
:101CF0008091EC01882319F1F89483E08093E90046
:101D00008091E80085FFFCCF8091ED018093F10088
:101D10001092F10090E080E0FC01E251FE4F208142
:101D20002093F100019686309105B1F78AE3809304
:101D3000E8001092F501789490E080E008958FEF2C
:101D40009FEF08958091EC0108951F921FB61F9296
:101D500011242F933F938F939F938091E1001092D2
:101D6000E10083FF21C01092E90091E09093EB0025
:101D70001092EC008091ED0082628093ED00109251
:101D8000EC018091EE0087FF07C09093EA0010926B
:101D9000EA0088E08093F0009F918F913F912F910E
:101DA0001F901FBE1F90189582FFF6CF8091EC0107
:101DB000882391F38091F4018F5F8093F401209147
:101DC0003801309139012115310531F3837021F744
:101DD00083E08093E9008091E80085FFDDCF80916A
:101DE000F5018F5F8093F501209138013091390121
:101DF0008217130689F61092F5018091ED01809308
:101E0000F1001092F1001092F1001092F100109286
:101E1000F1001092F1001092F1001092F1008AE3AB
:101E20008093E800B9CF1F921FB61F9211242F9301
:101E30002BB72F933F934F935F936F937F938F9322
:101E40009F93AF93EF93FF931092E9008091E80086
:101E500083FF50C06091F1009091F1002091F1005A
:101E60008091F100382F4091F1007091F100809144
:101E7000F100A091F1005091E800527F5093E800EA
:101E8000963009F066C0211591E0390711F5EEE3AF
:101E9000F4E0E4912EE334E09A2F8F3F910519F09E
:101EA00010F08FEF90E0E81708F48E2F811130C00A
:101EB000FF91EF91AF919F918F917F916F915F9182
:101EC0004F913F912F912BBF2F911F901FBE1F90BD
:101ED0001895211592E0390799F0211591E23907FB
:101EE00031F4EFEEF3E0E4912FEE33E0D5CF21159E
:101EF000324251F08091EB0081628093EB00D8CFA9
:101F0000E2E22DED33E0C8CFEFE32FEF33E0C4CFB3
:101F10009091E80090FFFCCF9091E80092FDC8CF2F
:101F2000982F813208F090E250E040E0F901E40F90
:101F3000F51FE491E093F1004F5F5F4F4917B0F355
:101F4000891B290F311D9091E8009E7F9093E80036
:101F5000ADCF9930D9F4611145C02093EC01809147
:101F6000E8008E7F8093E80083E08093E90081E0C1
:101F70008093EB0081EC8093EC0086E08093ED0091
:101F80008EE18093EA001092EA0092CF953069F4D6
:101F90008091E8008E7F8093E8008091E80080FFC8
:101FA000FCCF20682093E30083CF983059F4603849
:101FB000C9F48091E80080FFFCCF8091EC01809310
:101FC000F1000AC091110EC08091E80080FFFCCFA3
:101FD0001092F1001092F1008091E8008E7F8093C2
:101FE000E80066CF572F4115510509F083CF613ABC
:101FF00049F59130A1F48091E80080FFFCCF8091F9
:10200000ED018093F100FA01E251FE4F808180934F
:10201000F1004F5F5F4F46305105A9F7DDCF923099
:1020200039F48091E80080FFFCCF80913801C7CF60
:10203000933009F05FCF8091E80080FFFCCF809162
:102040002A03BDCF613209F055CF993071F48091E8
:10205000E80082FFFCCF8091F100809329038091FA
:10206000E8008B7F8093E800B7CF9A3039F4309343
:102070003901209338011092F501AECF9B3009F061
:1020800039CF30932A03A8CF099A089A089592B1BC
:1020900087FB22E09D7F90F992B986FB20B990F9E9
:1020A00092B985FB20B990F992B984FB20B990F9D7
:1020B00092B983FB20B990F992B982FB20B990F9CB
:1020C00092B981FB20B990F992B980FB20B990F9BF
:1020D00092B980FB20B90895BF92CF92DF92EF9220
:1020E000FF920F931F93CF93DF93D82FD695D6955A
:1020F000843228F0D231C8F591E19D1BD92FC1E07F
:10210000C80F0BE213E0F12C26EFC22EBD2EE8948F
:10211000B3F8F801DF112CC0C082F80181918F0162
:1021200095E0E92EE80E8FEF0E944710DF1104C002
:10213000DE2CD694D694B110D12C80E00E944710AA
:102140008D2D0E9447108E2D0E944710F394F9E0C8
:10215000FF12DFCF8C2FDF91CF911F910F91FF9056
:10216000EF90DF90CF90BF900895D0E08FEFC7CF72
:1021700080818F3018F08F508083CFCF1082CDCFE9
:10218000FF920F931F93CF93DF93CDB7DEB72997BD
:102190000FB6F894DEBF0FBECDBF182F062F61E03B
:1021A00087E00E946202FC01228141816081CE01B0
:1021B00001960E94E302412F50E017FD41C08FE7D6
:1021C00090E09C01241B350BA9012D813E81440F19
:1021D000551F69817A81CE0107960E9491037FE0A5
:1021E000F72E8FEF0E944710E985F0E0EE0FFF1FFA
:1021F000ED55FF4F84910E944710E885F0E0EE0F07
:10220000FF1FED55FF4F84910E944710EF81F0E0D2
:10221000EE0FFF1FED55FF4F84910E944710FA9477
:10222000F110DFCF812F800F29960FB6F894DEBF13
:102230000FBECDBFDF91CF911F910F91FF900895F9
:1022400040585109C2CF0F931F93CF93DF9300D013
:102250000F92CDB7DEB7182F90E0623060F1109288
:102260002B03160F880F991F880F991F60912B035E
:10227000680F792F711D2FEF30E04FEF50E0CE0146
:1022800001960E9491030FE08FEF0E9447108B810F
:102290000E9447108A810E94471089810E9447103E
:1022A000015091F7812F0F900F900F90DF91CF91F8
:1022B0001F910F91089520912B03620F643018F441
:1022C00060932B03CFCF1F5F019610922B03CACFD1
:1022D0000F931F93CF93DF93C82F61E087E00E9495
:1022E00062028C01D0E08FEF0E944710CD1316C020
:1022F00081EF0E9447108FEE0E9447108FEF0E94DF
:102300004710DF5FDF3079F781E08C0F8F3008F006
:1023100080E0DF91CF911F910F910895F8018281A4
:102320000E944710F80181810E944710F8018081C6
:10233000E6CF80E00E94471080E00E94471080E0D6
:102340000E94471080E00C944710CF93C82F80E084
:102350000E94471080E00E94471080E00E944710D2
:1023600080E00E94471080E00E944710C83010F0C3
:10237000C850F9CFCF910895CF9387E00E9475029E
:10238000C82F80913A01882331F0815080933A011F
:1023900080E0CF91089581E080933A010E949911E5
:1023A000C330B1F038F4C13071F061E0C23089F06F
:1023B0008FE00BC0C430B9F0C530D1F78091F60181
:1023C0000E946C100AC08091F6010E94681105C03D
:1023D00064E08091F6010E9423118093F6018FE062
:1023E0000E94A511D5CF61E08091F6010E94C01036
:1023F000F4CF00D000D000D00F92CDB7DEB71A8254
:1024000080E8809361001092610053985B9A529823
:102410005A9A279A2F9881E080937F020E94440C59
:1024200081B18C6F81B982B18C6F82B920E0822F2B
:1024300090E0DC01A85DBE4F6C90611058C084B183
:10244000807884B985B18F6785B954985C9A8198F2
:10245000899A82988A9A83988B9A8098889887E834
:1024600080937A0080E480937C0056985E9A579817
:102470005F9A0E944410E0EAF2E0119222E0EA3F03
:10248000F207D9F70E944E0E0E9431091092B00057
:1024900087E08093B1001092B20081E087BB0E9478
:1024A000920A8FEF0E9413070E948B02182F0E943E
:1024B000920A812F0E9413070E94140C312C212CA8
:1024C00010E000E0D12CC12CF12CE12C52E0752E53
:1024D0000E948B028D830F5F1F4F0E94A20E582E09
:1024E0008823E1F00E944D0CB22C2B2CF1CF880FE9
:1024F000991FBC01685F7E4FFB0140815181FA0149
:1025000082A56094682262A6FB0140815181FA0194
:1025100083A59C91892B83A72F5F89CF73FC06C06D
:10252000B89B04C031E037BB0E94BC11872D83707B
:10253000B82EB11020C01F8236E0832E912C94E07B
:102540009E83A72DA170AC8370FC6DC082B18C6F8F
:102550009E81892782B9AAE1AA95F1F700C073FE8E
:102560005DC074FE30C04B9B03C0B72DB77E7B2E81
:1025700010E000E030C00E94B60B18160CF4B1C198
:102580000E94A20E882329F00E944D0CF12CE12C10
:10259000D0CF83B18C7429F4549A5C98529A5A988B
:1025A000F5CF52985A9A54985C9AF0CF0E94140C26
:1025B00062E08DEF0E947F0B8F2D88628C7F782EDA
:1025C000F12CE12CB8CF4B991DC0689474F810E041
:1025D00000E0F12CE12C2C81EF812E0FFC818F2F5C
:1025E00090E0FC01E85DFE4F3081332311F070FE76
:1025F0008EC03E81330F3E8381E0881A910899F0A6
:102600002F839FCFEFEFEE1AFE0AF9EBEF16FFE6EE
:10261000FF0608F4ADCF689470F8AACF0630110514
:10262000D0F24B99D8CF83B1982EE89497F8EAE589
:10263000E50DA52DB0E0A050BF4F8C918111C7C012
:1026400075FE0AC08EEF0E941A0CE89475F810927D
:102650007F0280E00E94440C872D8C71A1F4311020
:10266000DDC0CE0101960E942D0C882361F062E04E
:1026700089810E947F0B689473F810E000E0F12CD0
:10268000E12C22E0322EB72DB871BB2E09F01BC110
:10269000E1E02E120FC002301105B0F18FE70E9469
:1026A000630783EF0E941A0C83EF0E941A0C80E4E8
:1026B0000E94440C0630110508F4D2C04B99F9C0B1
:1026C0004A99F7C0CE0102960E94C60DA82E992EF7
:1026D0006A8167FDFAC0662309F4EBC00E942006F8
:1026E000B82EFFEF8F139CC081E40E94440C8BEF47
:1026F0000E941A0C8BEF0E941A0C80E00E941A0CA8
:1027000010E000E094E0392EBB24B394A9C0880FF8
:10271000991FFC01E85FFE4F0190F081E02D81A53B
:1027200083238B839B8181E0911180E08B83E22F57
:10273000F0E0CF0180569D4F5C01DC019C913B8114
:10274000892F8170831709F43DC096959F5F903261
:10275000A0F12B33D1F48B81813041F5462C4826F2
:1027600040927F02842D0E94440CEFEAF3E0249112
:10277000F0E86F9EC0011124822B0E941A0C811177
:1027800002C0689476F8642C11C0EC58FC4FE491B8
:102790008B8121E0822730E8839FC00111248E2B9A
:1027A0000E941A0C811102C0689476F88B81D501C1
:1027B0008C93BC81BF5FBC830ECF990F982BF50122
:1027C0009083F7CF9230A8F392509C93F2CF892157
:1027D00011F11B82F0E09B819F0120563D4F590172
:1027E000D9018C9181708917A1F0EC58FC4FE491CC
:1027F0008B81B1E08B27F0E88F9FC00111248E2BD5
:102800000E941A0C811102C0689476F88B81D50160
:102810008C9353940CCFB1E0BB83DCCF3A9433CF8D
:1028200018160CF042C08BEF0E941A0C8BEF0E941E
:102830001A0C8B2D0E941A0C0A2D192DF8010F5F0E
:102840001F4F80810E941A0C8A2D801B8B0DB1F7BF
:1028500083EF0E941A0CB12C10E000E084E0382EC7
:102860008D810E9413078091FA029091FD028923C5
:102870009091FE02892380FF2CC072FC06C06894F0
:1028800072F8D12CC12C72FE29C083E0C80ED11C75
:1028900094E1C916D10408F428CE549A5C98529A4F
:1028A0005A98A72DA77E7A2E20CE83EF0E941A0C6D
:1028B000CFCF013024E0120798F23D8130683D838C
:1028C00005E010E0CDCFB22CCBCFB12C10E000E072
:1028D000C7CF52985A9AE89472F8D5CF54985C9A18
:1028E00004CEB72DB77AFB2E71FC60CE62E089EF83
:1028F0000E947F0B8F2D886061CEAA1BBB1B51E10C
:1029000007C0AA1FBB1FA617B70710F0A61BB70B5F
:10291000881F991F5A95A9F780959095BC01CD0104
:10292000089597FB072E16F4009407D077FD09D081
:102930000E947D1407FC05D03EF4909581959F4F31
:102940000895709561957F4F0895FB01DC0102C0E9
:1029500001900D9241505040D8F70895F999FECF5B
:1029600092BD81BDF89A992780B50895262FF999CF
:10297000FECF92BD81BDF89A019700B4021639F0DE
:102980001FBA20BD0FB6F894FA9AF99A0FBE0895AF
:10299000262FF999FECF1FBA92BD81BD20BD0FB67B
:1029A000F894FA9AF99A0FBE01960895F894FFCF19
:1029B0004020100804020100FDFFFDFFFDFFFDFFA8
:1029C000FDFFFDFFFDFFFDFF03000300030003000B
:1029D00003000300030000000102040810204080EF
:0C29E00001020408102040007D000100EE
:00000001FF
