:100000000C9486010C94A5010C94A5010C94A501F7
:100010000C94A5010C94A5010C94A5010C94A501C8
:100020000C94A5010C94A5010C94A5010C94A501B8
:100030000C94A5010C94A5010C94A5010C94A501A8
:100040000C94A5010C94A5010C94A5010C94A50198
:100050000C94A5010C94A5010C94A5010C94A50188
:100060000C94A5010C94D5010C94FF010C94A501EE
:100070000C94A5010C94A5010C94A5010C94A50168
:100080000C94A5010C94A5010C94A5010C94A50158
:100090000C943D030C94A501020007026EFF027050
:1000A000BF000000140028003C00500063007700EF
:1000B0008B009F00B300C700DB00F10008012001A6
:1000C000390154016F018C01AB01CA01EB010E0231
:1000D000320257027D02A502CE02F9022503530324
:1000E0008203B303E50318044D048404BC04F6043E
:1000F00032056F05AD05ED052F067306B806FE0641
:1001000047079107DD072A087A08CA081D097209FE
:10011000C809200A790AD50A320B910BF20B550C4B
:10012000BA0C200D880DF20D5E0ECC0E3C0FAE0FFA
:10013000211097100E1188110312801200138113E1
:100140000414891410159A152516B2164117D317E1
:100150006618FB1893192C1AC81A661B061CA71CD4
:100160004C1DF21D9A1E441FF11FA0205021042295
:10017000B92270232A24E524A32564262627EB2709
:10018000B1287B29462A142BE32BB62C8A2D612E0D
:100190003A2F1530F230D231B43299338034693588
:1001A00055364237333825391A3A123B0B3C073D56
:1001B000063E073F0A4010411842234330443F4562
:1001C000514665477C489549B14ACF4BF04C134E98
:1001D000394F61508C51B952E9531B5550568757CE
:1001E000C158FE593D5B7E5CC25D095F52609E61F5
:1001F000ED623E649165E86640689C69FA6A5B6CF2
:10020000BE6D246F8D70F8716673D7744A76C077AF
:100210003979B47A327CB37D377FBD804682D18311
:100220005F85F08684881B8AB48B508DEF8E90900A
:100230003592DC9386953297E298949A499C019E78
:10024000BB9F79A139A3FCA4C2A68BA856AA25AC52
:10025000F6ADCAAFA1B17BB357B537B719B9FFBA7D
:10026000E7BCD2BEC0C0B1C2A5C49CC695C892CAE4
:1002700091CC94CE99D0A1D2ADD4BBD6CCD8E0DA73
:10028000F7DC11DF2EE14EE371E597E7C0E9ECEB17
:100290001BEE4DF082F2BAF4F5F633F974FBB8FDBB
:1002A000FFFF5F595857565C555B54535251505A93
:1002B000454C0D0C0B0A0908070605040302010052
:1002C0004F441B1A19181716151413121110424E09
:1002D000462B2A29282726252423222120624D4126
:1002E00040403A393837363534333231304A0F1DD1
:1002F0002D3D431E2E3E3C1F2F3F5E5D66646063B6
:1003000067656100000000000000000011241FBEAE
:10031000CFEFD0E2DEBFCDBF11E0A0E0B1E0EEE173
:10032000FBE100E00BBF02C007900D92A833B107BC
:10033000D9F723E0A8E3B1E001C01D92AD30B207C8
:10034000E1F70E94D90A0C948D0D0C9400001092D4
:100350008201109281011092800110927F0110920F
:100360007D0108959091800180917F019817D1F0CF
:10037000E0917F01EF5FEF71E0937F01F0E0ED57D7
:10038000FE4F80818D3029F490917D0191509093A2
:100390007D0120917E0130E0322F2227820F932FA2
:1003A000911D089580E091E008952F932FB72F932A
:1003B0002BB72F938F939F93EF93FF938091C80058
:1003C0009091CE00E0913A01EF5FEF7120913901F9
:1003D0002E1799F08871E0933A01F0E0E35CFE4F4C
:1003E000908380933801FF91EF919F918F912F918E
:1003F0002BBF2F912FBF2F91189582E0F2CF8F93B3
:100400008FB78F938BB78F939F93EF93FF939091B9
:100410003C0180913B019817A9F0E0913B01EF5F0F
:10042000EF71E0933B01F0E0E35AFE4F808180934F
:10043000CE00FF91EF919F918F918BBF8F918FBFD6
:100440008F9118958091C9008F7D8093C900F1CF5D
:100450009C0110923C0110923B0110923A011092C3
:10046000390197FF04C082E08093C8003F77309342
:10047000CD002093CC0088E98093C90086E080936A
:10048000CA00089590913A0180913901981799F026
:10049000E0913901EF5FEF71E0933901F0E0E35C47
:1004A000FE4F208190913801892F90E0982F882766
:1004B000820F911D089580E091E0089590913C0194
:1004C0009F5F9F7120913B012917E1F3E92FF0E035
:1004D000E35AFE4F808390933C018091C900806273
:1004E0008093C9000895CF93DF93EC018991811126
:1004F00003C0DF91CF9108950E945E02F7CFCF93A2
:10050000DF93EC01FE0184912196811103C0DF91FC
:10051000CF9108950E945E02F5CF80913A0120911B
:10052000390190E04F96821B91096FE170E00E94C3
:10053000480D08958091390180933A01089580E231
:100540008093B8001092B9001092E701789484E08B
:100550008093BC0008958091E7018111FCCF84EC69
:1005600091E008958091E701089585EA8093BC00A9
:10057000089584E98093BC00089585EC8093BC00C5
:10058000089585E88093BC0008958093BB0008958A
:10059000A3ECB1E09196EC91919781E08E0F91964A
:1005A0008C938091BB00F0E0ED53FE4F8083089563
:1005B0002091E4018091E3018150990B28171906DD
:1005C00024F485EC8093BC00089585E8FBCF8091EE
:1005D000C3011092E701E091E501F091E601309747
:1005E00021F064EC71E0869509940895EF92FF92F2
:1005F0000F931F93CF93DF93D82F8B01C42F7901D3
:100600000E94AB0281E08093E701E3ECF1E0DD0FB3
:10061000D0838C0F80A311A2E2A2F3A24C2F50E052
:10062000B80184EC91E00E945C0D85EA8093BC00E7
:10063000DF91CF911F910F91FF90EF9008950F934D
:100640001F93CF93DF93C82FD62F8A010E94AB024E
:1006500081E08093E701E3ECF1E0CC0FC160C0835F
:10066000DF5FD0A311A202A313A385EA8093BC008D
:10067000DF91CF911F910F9108951F920F920FB6A6
:100680000F9211240BB60F922F933F934F935F93CA
:100690006F937F938F939F93AF93BF93EF93FF934A
:1006A0008091B900887F803409F43FC0A8F5883173
:1006B00069F050F4883051F0803141F084E9809342
:1006C000BC000E94E70215C08832C1F7E091E40146
:1006D0008091E301E81790F781E08E0F8093E401A9
:1006E000F0E0ED53FE4F80818093BB0085E880935E
:1006F000BC00FF91EF91BF91AF919F918F917F913E
:100700006F915F914F913F912F910F900BBE0F9082
:100710000FBE0F901F901895803529F0883571F61F
:100720000E94C802CBCF0E94C8020E94D802E1CF2B
:10073000ECE7F0E09081907E8770982B9083EAE759
:10074000F0E08081806480830895809178009091AA
:1007500079000895662311F0842B08954095842331
:1007600008958091F90190916302992371F080615D
:100770008093F9019091E801923049F140F4911190
:100780000DC080E00E94980318C08F7EF1CF933097
:1007900001F1943071F11092E80114C080917A0057
:1007A00084FF10C00E94A5039C019091F90123359C
:1007B000334058F091609093F9018091E8018F5F88
:1007C0008093E8018091F90108959E7FF4CF81E044
:1007D000D9CF80917A0084FFF5CF0E94A5039C01B8
:1007E0009091F9012130324010F09260E4CF9D7F6A
:1007F000E2CF7A990AC084608093F9017B9907C09F
:1008000088608093F90185E0DBCF8B7FF5CF877F10
:10081000F8CFCF92DF92EF92FF920F931F93CF9377
:10082000DF93EC01C62EF880E980DA80FE1408F030
:1008300043C0ED1408F448C0E0E0FD1408F0E2E025
:1008400041E0DE01A40FB11D3C91EC0FFD2FF11D25
:100850008081232F281B032F10E027FD3AC00115AC
:10086000110509F4F0C05FEF259FC0011124B80104
:100870000E94340DFB016F3F710519F014F0EFEF8A
:10088000F0E070E060E02223E1F1622F70E04423A9
:1008900071F18F2D90E0413009F49FC0DC01AE1959
:1008A000B1092BEA2A9FC0012B9F900D11240E94B1
:1008B000480D65557D4F25C0FD1448F0E1E0ED146D
:1008C00008F0E2E040E0BDCFE0E042E0BACFE1E096
:1008D000FCCF0115110509F4B8C050E8259FC001EF
:1008E0001124B8016F5F7F4F75956795C1CFED18E3
:1008F000FF082BEA2E9DC0012F9D900D11240E9410
:10090000480D832F232F309709F481C084E0C89EBF
:1009100070011124E60EF71E53E0F522C7016BEAC1
:1009200070E00E94480D25E5269FC001279F900D8D
:10093000961B11248E0D9F1D26E0289FD001299F14
:10094000B00D1124B595A795B595A795AE9FA001BB
:10095000AF9F500DBE9F500D1124452F550F550BC5
:100960008FEF90E06C01C41AD50AC09EA001C19E11
:10097000500DD09E500D11246C01CA1ADB0ACE9E78
:10098000D001CF9EB00DDE9EB00D1124AB2FBB0F5A
:10099000BB0B6C01CA1ADB0AC09ED001C19EB00D10
:1009A000D09EB00D11248E1B9F0B809FF001819F64
:1009B000F00D909FF00D11242F2F62307105B9F1C9
:1009C00081E0E81682E0F806BCF461157105E9F0F3
:1009D0006130710541F1852F1AC0AD2DB0E0A81B23
:1009E000B90B2BEA2A9FC0012B9F900D11240E9466
:1009F000480D6A5A7E4F85CF63307105E9F0643047
:100A0000710549F7832F3B2F02C08F2F2B2F38837F
:100A100029838A83DF91CF911F910F91FF90EF90EF
:100A2000DF90CF9008958F2F232F352FF0CF8B2F6E
:100A3000632F3F2F262FEBCF832F3F2F252FE7CF7D
:100A400080E030E0E4CF2223D9F3F0E0E0E01DCFF6
:100A50000F931F93CF93DF9300D00F92CDB7DEB7E4
:100A600035E13A95F1F70000E091F001F0E0EE5F3A
:100A7000FD4F20812F3FB9F489E48093FA01109251
:100A8000FB0130E020E042E06AEF71E084E30E9485
:100A9000F60210921A020F900F900F90DF91CF91F3
:100AA0001F910F910895E181822F880F820F880F87
:100AB0008F5F8093FA01822F90E04E2F50E0FA0171
:100AC000EE0FFF1FE40FF51FA9E02A9FE00DF11DB7
:100AD0001124E55EFD4F4081498321812A83628193
:100AE0006B83FC01E751FE4F3081313009F443C084
:100AF000323009F44BC0311166C0898190E0880F13
:100B0000991FFC01EE55FF4FE491E093FB01FC01BE
:100B1000ED55FF4FE491E093FC018A8190E0880F4E
:100B2000991FFC01EE55FF4FE491E093FD01FC019C
:100B3000ED55FF4FE491E093FE018B8190E0880F2B
:100B4000991FFC01EE55FF4FE491E093FF01FC017A
:100B5000ED55FF4FE491E09300028091F0018E5F2C
:100B60008093F00128E235E047E06AEF71E084E32A
:100B70000E94F60290CFFC01E65AFD4F60816F5F44
:100B80006083CE0101960E940904B7CFFC01E65AAA
:100B9000FD4F20812F5F208327FD2095FE01319698
:100BA000AE014C5F5F4F8191DF011197829FC001C1
:100BB00011248096880F892F881F990B8C934E17CC
:100BC0005F0789F79ACFFC01E65AFD4F90819F5F3E
:100BD000908397FD909530E0420F532F511D420FA7
:100BE000531F460F511D5595479555954795FE0145
:100BF00031968E010C5F1F4F292F30E0619170E01C
:100C0000641B750B629FC001639F900D729F900DD6
:100C10001124805C9F4FBF0161507109880F892F9B
:100C2000881F990B840FDB018C930E171F0731F778
:100C300064CF30E020E0682F70E0FB01022E02C09C
:100C4000F595E7950A94E2F7422F2F5F3F4FE0FDBD
:100C500010C02730310589F78FEF0895FB01022E70
:100C600002C0F595E7950A94E2F7E0FD07C02F5F13
:100C70003F4F2730310594F32FEF3FEF87FF0CC034
:100C80002F3F320709F0422F81E090E001C0880F2A
:100C90004A95EAF7806808952F3F3F4FE9F281E0D7
:100CA00001C0880F4A95EAF70895BF92CF92DF926C
:100CB000EF92FF920F931F93CF93DF9300D00F9289
:100CC000CDB7DEB78C01FC012FEF2983DD24DA9448
:100CD00099E0B92E61111DC0EFEFDE1609F4D2C004
:100CE000FFE7DF12A1C08AEBD8018C9383E0119655
:100CF0008C93119712968C930F900F900F90DF9119
:100D0000CF911F910F91FF90EF90DF90CF90BF9008
:100D10000895DF018D917D01B82FBF71BA83CC2476
:100D2000CA94C60E807E803809F478C048F48034B6
:100D300009F44FC0803601F1803271F1C12C29C015
:100D4000803A09F46EC0803CC9F7CC2011F1AEEFB7
:100D5000CA2EC60E7F0122E0E20EF11C3A81373026
:100D6000C0F48181A32FB0E0FD01E751FE4F8083E5
:100D7000A65ABD4F1C920DC0CC2059F08EEFC82E44
:100D8000C60E7F0122E0E20EF11C3A81373008F4F2
:100D9000D32E6C2DF7019ECFCC20D9F3BEEFCB2EF6
:100DA000C60E7F0182E0E80EF11C9A81973088F729
:100DB0008181A92FB0E0BB83AA83FD01EE50FE4FD5
:100DC00080830E941906EA81FB81EE5EFD4F8083DD
:100DD000E0CF23E02C1508F0B1CF7BEFC72EC60E75
:100DE00081817F0135E0E30EF11C833090F69A811A
:100DF000973078F642813381248190E0FC01EE0F38
:100E0000FF1FE80FF91FAA81BA9EE00DF11D112402
:100E1000E55EFD4F408331832283BBCFBFE7B983BB
:100E2000B8CF8FE7D82EB5CF8D2D0D2C000C990B98
:100E3000FC01EE50FE4F2081F80120832D2D39E07A
:100E40002302F0011124E55EFD4FD8019801275FD0
:100E50003F4F408111964C931197418112964C93CC
:100E60001297428113964C931397339613962A1731
:100E70003B0779F787519E4FDC018C91F8018287FF
:100E80008BE03ACF81E0F981FF3F09F480E0819562
:100E900033CF0F931F93CF93DF93C82FD091F101DE
:100EA000D81709F43EC00E94B20290911A02892B11
:100EB000C1F5DC27C7FDDFE1CF7102EF11E030E0C3
:100EC00020E0E2E0F2E05C2F5068422FD8018D91E3
:100ED0008D01682F6D2311F4DF3179F44083852370
:100EE000B9016E5E7D4FDB014C91481701F18F77A0
:100EF00041E009F440E0418332962F5F3F4F2730B5
:100F0000310519F781E080931A028FEF8083818386
:100F10001092F00170E060E080E00E942805C0932C
:100F2000F1018C2FDF91CF911F910F91089542E035
:100F3000E2CF6F927F928F929F92AF92BF92CF92A9
:100F4000DF92EF92FF920F931F93CF93DF936AEBA1
:100F500080E091E00E947F0D68E581E091E00E94D1
:100F60007F0D82EF882E81E0982E99EE692E91E018
:100F7000792E2BE1C22E22E0D22E3CE0E32EFF247C
:100F8000F394F40161914F01E7012997C7010A9792
:100F90000E946D0D86015E01F8016081CE010E9404
:100FA0006D0DF8016181CE0101960E946D0D2396B1
:100FB000F8016281C50102960E946D0D0D5F1F4F01
:100FC000CE15DF0541F7F30161913F01CE010E948B
:100FD0006D0DCE010B967C0199E0C90ED11CCE346B
:100FE000D14079F66AEB80E091E00E946D0D68E5F2
:100FF00081E091E0DF91CF911F910F91FF90EF90F1
:10100000DF90CF90BF90AF909F908F907F906F9028
:101010000C946D0D4F925F926F927F928F929F9280
:10102000AF92BF92CF92DF92EF92FF920F931F93F6
:10103000CF93DF9381E091E00E94650D883509F040
:1010400053C080E091E00E94650D8A3B09F04CC0DE
:1010500082EFC82E81E0D82E92E1A92E92E0B92E1F
:1010600029EE822E21E0922E3BE1E32E32E0F32E98
:101070004CE0442E55245394E2012997C2010A976B
:101080000E94650DF60181936F010E941906F5011A
:1010900081935F0187013E01CE010E94650DF80139
:1010A0008083CE0101960E94650DF801818323960D
:1010B000C30102960E94650DF80182830D5F1F4FE8
:1010C000C415D50541F7C2010E94650DF401819355
:1010D0004F01FBE04F0E511C89E0E80EF11CE9E5E1
:1010E0004E16E1E05E0641F6DF91CF911F910F9120
:1010F000FF90EF90DF90CF90BF90AF909F908F9038
:101100007F906F905F904F900895FB018081809356
:10111000190208950F931F93CF93DF938AE0809372
:10112000F20186E88093F30186E08093F40181E088
:101130008093F5018093F6018093F70180E180931D
:10114000F801C2EFD1E002E112E089910E94190694
:10115000F80181938F01F1E0C93FDF07B1F7E9EEB4
:10116000F1E0AAE5B2E011921D9281E0E03FF807BC
:10117000D1F710921B0210921C0210921D021092C5
:101180002402109225021092260210922D02109233
:101190002E0210922F0210921E028FEF80931F02D8
:1011A0002AEE209320028093210290E9909322025C
:1011B0001092230280932702909328021092290212
:1011C00010922A0220932B0280932C02109230025C
:1011D0002093310280933202809333029093340241
:1011E0001092350290E29093360221E0209337026C
:1011F00034E0309338028093390233E030933A027E
:1012000036E430933B0290933F0235E03093400246
:1012100036E0309341028093420233E2309343023E
:1012200036E5309344029093480299E09093490246
:1012300098E090934A0280934B0283E480934C029F
:1012400086E680934D022093510282E380935202FE
:1012500086E28093530281EA8093540210925502F1
:1012600089EC80935602DF91CF911F910F910895E1
:101270001F93CF93DF931092F9011092E80110921F
:10128000F1018198899882988A9883988B988098A0
:10129000889887E880937A0080E480937C000E949D
:1012A0009F02559A5D9AD0E0C0E0CE010196FE0102
:1012B000E856FF4F4491411134C0CAE4DFEF1FE507
:1012C000C093FA01D093FB01D093FC011093FD0170
:1012D00030E020E044E06AEF71E084E30E94F6022F
:1012E000CD5FCF3569F70E948A088FE7DF91CF91F4
:1012F0001F910C940A08E491ED932150FC01E856EB
:10130000FF4F01962F3FB9F7842F90E00196C80F49
:10131000D91F30E020E06AEF71E084E30E94F6021A
:10132000C4CF242FAAEFB1E0E8CFE82FF0E062307D
:1013300060F5EE55FD4FE491EE0F81E06827E62B56
:101340005A9A529A5B9A539A98E020E0E7FF28E075
:101350008BB1877F822B8BB98AE68A95F1F700C023
:101360005A988AE68A95F1F700C05A9A80EA8A95D7
:10137000F1F7EE0F915049F75B9A8AE68A95F1F7FB
:1013800000C05398529881E00895EE0FFF1F881F08
:101390008827881FE82BD4CFCF93DF935A9A529A8D
:1013A0005B9A539A5A9A5B988AE68A95F1F700C03D
:1013B0005A988AE68A95F1F700C05A9A8AE68A9581
:1013C000F1F700C05B9A53985298C1E0D0E0CE018B
:1013D0009370892B79F40E94B1030E9449074B9BBB
:1013E0000EC02196CC3D87E3D80789F780E0DF91D6
:1013F000CF91089585E38A95F1F70000F0CFC1E021
:10140000D0E0CE019370892B61F40E94B1030E9459
:1014100049074B990BC02196CC3D87E3D80789F744
:10142000E5CF85E38A95F1F70000F3CF81E0DFCFC8
:10143000109262028FE1809361020895E09162024E
:1014400091E09E0F9F7120916102291741F0F0E019
:10145000E351FD4F80839093620281E0089580E024
:101460000895FC01809161028F5F8F7190916202FB
:10147000981761F0309741F0A82FB0E0A351BD4F0D
:101480009C9190838093610281E0089580E00895AB
:1014900099B1982B96FF04C080FD2F9A80FF2F985A
:1014A0000895FC01892BA1F0108214BC84E085BD55
:1014B00016BC81E085BB31E090E080E0A89B0AC0CB
:1014C0009330D9F0A89B2BC090689083F0E0E0E0C7
:1014D000CF01089525E32A95F1F7000049B1242FA3
:1014E000247042FF08C0311111C08F5F990F4B9BD0
:1014F0000FC0916021E0933061F4853028F085B30E
:10150000582F517080FF15C093E0DCCF232FF3CF0D
:1015100021E0883010F09430A8F6322FCFCF16BCDF
:1015200081E085BB80E8A899CFCF4A99FCCF86BDE2
:10153000FACF16BC81E085BB80E040E090E024E675
:1015400032E061E0A89B02C05F5F65BB75E37A95FE
:10155000F1F700004A9927C0913091F4483051F4D6
:10156000D9018D939D01A456B240909794F416BC76
:1015700080E040E04F5F880F4B99816092E005C0AA
:10158000933098F49F5F4B9981605A30D9F6483078
:1015900021F4D9018D939D0116BC2456324020833D
:1015A000E4E6F2E095CF91E0F0CF93E0EECF08953E
:1015B000089500D000D000D0CDB7DEB71A8280E801
:1015C000809361001092610053985B9A52985A9AE6
:1015D000279A2F9881E0809363020E94480A81B184
:1015E0008C6F81B982B1837082B930E0832F90E033
:1015F000DC01A85DBE4F2C91211168C084B18078B8
:1016000084B985B18F6785B954985C9A8198899A15
:1016100082988A9A83988B9A8098889887E8809392
:101620007A0080E480937C0056985E9A57985F9A7F
:10163000E4E8F2E08EED92E011928E179F07E1F759
:101640000E9438090E94AB028FEF0E9449070E9456
:10165000B103182F0E94AB02812F0E9449070E94FC
:10166000180A412C512C312C10E000E0D12CC12C57
:10167000F12CE12C52E0752E0E94B1038C830F5F98
:101680001F4FF72DF370BF2EB11037C01E8236E00A
:10169000832E912CF4E0FD83272D2170222E70FCE7
:1016A0007BC082B18C6F2D81822782B93AE13A9555
:1016B000F1F700C073FE6BC074FE40C04B9B03C0CB
:1016C000872D877E782E10E000E040C0880F991F9C
:1016D000BC01685F7E4FFB0180819181FC0142A5C6
:1016E0002095242322A7FB0140815181FA0183A583
:1016F0009C91892B83A73F5F79CF0E94CC09181654
:101700000CF4A6C183B1837339F4549A5C98529A4D
:101710005A98F12CE12CB8CF52985A9A54985C9A66
:10172000F8CF0E94180A62E08DEF0E9495098F2D74
:1017300088628C7F782EF12CE12CA8CF4B991BC0AE
:10174000689474F810E000E0F12CE12C2E81220D59
:10175000822D90E0FC01E85DFE4F3081332311F0D3
:1017600070FE8FC0BD81BB0FBD83E1E08E1A910872
:1017700099F02E8391CF9FEFE91AF90AA9EBEA16A7
:10178000AFE6FA0608F49FCF689470F89CCF063055
:101790001105E0F24B99DACF83B1882EE89487F8EF
:1017A000912CEAE5E90DA92DB0E0A050BF4F8C9136
:1017B0008111C5C075FE0AC08EEF0E941E0AE89412
:1017C00075F81092630280E00E94480A872D8C71A0
:1017D000A1F45110DAC0CE0101960E94310A88238B
:1017E00061F062E089810E949509689473F810E0C5
:1017F00000E0F12CE12C22E0522EB72DB8719B2E87
:1018000009F018C1E1E03E120FC002301105B0F13D
:101810008FE70E94990783EF0E941E0A83EF0E94C0
:101820001E0A80E40E94480A0630110508F4CFC061
:101830004B99F6C04A99F4C0CE0102960E94510A13
:10184000B82EA92E6A8167FDF7C0662309F4E8C0A7
:101850000E945506982EFFEF8F1399C081E40E94D5
:10186000480A8BEF0E941E0A8BEF0E941E0A80E03E
:101870000E941E0A10E000E094E0592E99249394EF
:10188000A6C0880F991FFC01E85FFE4F0190F08110
:10189000E02D81A583238B839B8181E0911180E0E2
:1018A0008B83E22FF0E0CF018C579D4F5C01DC0170
:1018B0009C913B81892F8170831709F43BC09695D9
:1018C0009F5F903290F12B33D1F48B81813041F5C1
:1018D000642C682660926302862D0E94480AEDED12
:1018E000F2E02491F0E84F9EC0011124822B0E9467
:1018F0001E0A811102C0689476F8462C11C0EE557C
:10190000FD4FE4918B8121E0822730E8839FC00165
:1019100011248E2B0E941E0A811102C0689476F851
:101920008B81D5018C93239411CF990F982BF501BE
:101930009083F9CF9230B8F392509C93F4CF8821E2
:1019400009F11B82F0E09B81DF01AC57BD4F5D01C7
:101950008C9181709817A1F0EE55FD4FE4918B8129
:10196000B1E08B27F0E88F9FC00111248E2B0E94DD
:101970001E0A811102C0689476F88B81D5018C9380
:1019800093940FCF31E03B83DDCF5A9436CF1816B6
:101990000CF042C08BEF0E941E0A8BEF0E941E0AC1
:1019A000892D0E941E0A0B2D1A2DF8010F5F1F4F63
:1019B00080810E941E0A8B2D801B890DB1F783EF59
:1019C0000E941E0A912C10E000E084E0582E8C81C9
:1019D0000E9449078091DE029091E1028923909153
:1019E000E202892380FF2CC072FC06C0689472F862
:1019F000D12CC12C72FE29C083E0C80ED11C94E109
:101A0000C916D10438F0549A5C98529A5A98A72D66
:101A1000A77E7A2E392C30CE83EF0E941E0ACFCFBC
:101A2000013024E0120798F23C8130683C8305E0E5
:101A300010E0CDCF932CCBCF912C10E000E0C7CF9E
:101A400052985A9AE89472F8D5CF54985C9AE2CF9B
:101A5000B72DB77AFB2E71FC64CE62E089EF0E944D
:101A600095098F2D886065CEAA1BBB1B51E107C06D
:101A7000AA1FBB1FA617B70710F0A61BB70B881F1E
:101A8000991F5A95A9F780959095BC01CD010895AD
:101A900097FB072E16F4009407D077FD09D00E941B
:101AA000340D07FC05D03EF4909581959F4F089525
:101AB000709561957F4F0895FB01DC0102C0019094
:101AC0000D9241505040D8F70895F999FECF92BD3C
:101AD00081BDF89A992780B50895262FF999FECFF0
:101AE00092BD81BDF89A019700B4021639F01FBA71
:101AF00020BD0FB6F894FA9AF99A0FBE0895262FD2
:101B0000F999FECF1FBA92BD81BD20BD0FB6F894E2
:0E1B1000FA9AF99A0FBE01960895F894FFCF45
:101B1E004020100804020100FDFFFDFFFDFFFDFF48
:101B2E00FDFFFDFFFDFFFDFF0300030003000300AB
:101B3E00030003000300000001020408102040808F
:081B4E00010204081020400010
:00000001FF
